{
  "_format": "hh-sol-artifact-1",
  "contractName": "LoogieTank",
  "sourceName": "contracts/LoogieTank.sol",
  "abi": [
    {
      "inputs": [
        {
          "internalType": "address",
          "name": "_loogies",
          "type": "address"
        }
      ],
      "stateMutability": "nonpayable",
      "type": "constructor"
    },
    {
      "anonymous": false,
      "inputs": [
        {
          "indexed": true,
          "internalType": "address",
          "name": "owner",
          "type": "address"
        },
        {
          "indexed": true,
          "internalType": "address",
          "name": "approved",
          "type": "address"
        },
        {
          "indexed": true,
          "internalType": "uint256",
          "name": "tokenId",
          "type": "uint256"
        }
      ],
      "name": "Approval",
      "type": "event"
    },
    {
      "anonymous": false,
      "inputs": [
        {
          "indexed": true,
          "internalType": "address",
          "name": "owner",
          "type": "address"
        },
        {
          "indexed": true,
          "internalType": "address",
          "name": "operator",
          "type": "address"
        },
        {
          "indexed": false,
          "internalType": "bool",
          "name": "approved",
          "type": "bool"
        }
      ],
      "name": "ApprovalForAll",
      "type": "event"
    },
    {
      "anonymous": false,
      "inputs": [
        {
          "indexed": true,
          "internalType": "address",
          "name": "from",
          "type": "address"
        },
        {
          "indexed": true,
          "internalType": "address",
          "name": "to",
          "type": "address"
        },
        {
          "indexed": true,
          "internalType": "uint256",
          "name": "tokenId",
          "type": "uint256"
        }
      ],
      "name": "Transfer",
      "type": "event"
    },
    {
      "inputs": [
        {
          "internalType": "address",
          "name": "to",
          "type": "address"
        },
        {
          "internalType": "uint256",
          "name": "tokenId",
          "type": "uint256"
        }
      ],
      "name": "approve",
      "outputs": [],
      "stateMutability": "nonpayable",
      "type": "function"
    },
    {
      "inputs": [
        {
          "internalType": "address",
          "name": "owner",
          "type": "address"
        }
      ],
      "name": "balanceOf",
      "outputs": [
        {
          "internalType": "uint256",
          "name": "",
          "type": "uint256"
        }
      ],
      "stateMutability": "view",
      "type": "function"
    },
    {
      "inputs": [
        {
          "internalType": "uint256",
          "name": "tokenId",
          "type": "uint256"
        }
      ],
      "name": "getApproved",
      "outputs": [
        {
          "internalType": "address",
          "name": "",
          "type": "address"
        }
      ],
      "stateMutability": "view",
      "type": "function"
    },
    {
      "inputs": [
        {
          "internalType": "address",
          "name": "owner",
          "type": "address"
        },
        {
          "internalType": "address",
          "name": "operator",
          "type": "address"
        }
      ],
      "name": "isApprovedForAll",
      "outputs": [
        {
          "internalType": "bool",
          "name": "",
          "type": "bool"
        }
      ],
      "stateMutability": "view",
      "type": "function"
    },
    {
      "inputs": [],
      "name": "mintItem",
      "outputs": [
        {
          "internalType": "uint256",
          "name": "",
          "type": "uint256"
        }
      ],
      "stateMutability": "nonpayable",
      "type": "function"
    },
    {
      "inputs": [],
      "name": "name",
      "outputs": [
        {
          "internalType": "string",
          "name": "",
          "type": "string"
        }
      ],
      "stateMutability": "view",
      "type": "function"
    },
    {
      "inputs": [
        {
          "internalType": "address",
          "name": "operator",
          "type": "address"
        },
        {
          "internalType": "address",
          "name": "from",
          "type": "address"
        },
        {
          "internalType": "uint256",
          "name": "loogieTokenId",
          "type": "uint256"
        },
        {
          "internalType": "bytes",
          "name": "tankIdData",
          "type": "bytes"
        }
      ],
      "name": "onERC721Received",
      "outputs": [
        {
          "internalType": "bytes4",
          "name": "",
          "type": "bytes4"
        }
      ],
      "stateMutability": "nonpayable",
      "type": "function"
    },
    {
      "inputs": [
        {
          "internalType": "uint256",
          "name": "tokenId",
          "type": "uint256"
        }
      ],
      "name": "ownerOf",
      "outputs": [
        {
          "internalType": "address",
          "name": "",
          "type": "address"
        }
      ],
      "stateMutability": "view",
      "type": "function"
    },
    {
      "inputs": [
        {
          "internalType": "uint256",
          "name": "id",
          "type": "uint256"
        }
      ],
      "name": "renderTokenById",
      "outputs": [
        {
          "internalType": "string",
          "name": "",
          "type": "string"
        }
      ],
      "stateMutability": "view",
      "type": "function"
    },
    {
      "inputs": [
        {
          "internalType": "uint256",
          "name": "_id",
          "type": "uint256"
        }
      ],
      "name": "returnAllLoogies",
      "outputs": [],
      "stateMutability": "nonpayable",
      "type": "function"
    },
    {
      "inputs": [
        {
          "internalType": "address",
          "name": "from",
          "type": "address"
        },
        {
          "internalType": "address",
          "name": "to",
          "type": "address"
        },
        {
          "internalType": "uint256",
          "name": "tokenId",
          "type": "uint256"
        }
      ],
      "name": "safeTransferFrom",
      "outputs": [],
      "stateMutability": "nonpayable",
      "type": "function"
    },
    {
      "inputs": [
        {
          "internalType": "address",
          "name": "from",
          "type": "address"
        },
        {
          "internalType": "address",
          "name": "to",
          "type": "address"
        },
        {
          "internalType": "uint256",
          "name": "tokenId",
          "type": "uint256"
        },
        {
          "internalType": "bytes",
          "name": "_data",
          "type": "bytes"
        }
      ],
      "name": "safeTransferFrom",
      "outputs": [],
      "stateMutability": "nonpayable",
      "type": "function"
    },
    {
      "inputs": [
        {
          "internalType": "address",
          "name": "operator",
          "type": "address"
        },
        {
          "internalType": "bool",
          "name": "approved",
          "type": "bool"
        }
      ],
      "name": "setApprovalForAll",
      "outputs": [],
      "stateMutability": "nonpayable",
      "type": "function"
    },
    {
      "inputs": [
        {
          "internalType": "bytes4",
          "name": "interfaceId",
          "type": "bytes4"
        }
      ],
      "name": "supportsInterface",
      "outputs": [
        {
          "internalType": "bool",
          "name": "",
          "type": "bool"
        }
      ],
      "stateMutability": "view",
      "type": "function"
    },
    {
      "inputs": [],
      "name": "symbol",
      "outputs": [
        {
          "internalType": "string",
          "name": "",
          "type": "string"
        }
      ],
      "stateMutability": "view",
      "type": "function"
    },
    {
      "inputs": [
        {
          "internalType": "uint256",
          "name": "index",
          "type": "uint256"
        }
      ],
      "name": "tokenByIndex",
      "outputs": [
        {
          "internalType": "uint256",
          "name": "",
          "type": "uint256"
        }
      ],
      "stateMutability": "view",
      "type": "function"
    },
    {
      "inputs": [
        {
          "internalType": "address",
          "name": "owner",
          "type": "address"
        },
        {
          "internalType": "uint256",
          "name": "index",
          "type": "uint256"
        }
      ],
      "name": "tokenOfOwnerByIndex",
      "outputs": [
        {
          "internalType": "uint256",
          "name": "",
          "type": "uint256"
        }
      ],
      "stateMutability": "view",
      "type": "function"
    },
    {
      "inputs": [
        {
          "internalType": "uint256",
          "name": "id",
          "type": "uint256"
        }
      ],
      "name": "tokenURI",
      "outputs": [
        {
          "internalType": "string",
          "name": "",
          "type": "string"
        }
      ],
      "stateMutability": "view",
      "type": "function"
    },
    {
      "inputs": [],
      "name": "totalSupply",
      "outputs": [
        {
          "internalType": "uint256",
          "name": "",
          "type": "uint256"
        }
      ],
      "stateMutability": "view",
      "type": "function"
    },
    {
      "inputs": [
        {
          "internalType": "address",
          "name": "from",
          "type": "address"
        },
        {
          "internalType": "address",
          "name": "to",
          "type": "address"
        },
        {
          "internalType": "uint256",
          "name": "tokenId",
          "type": "uint256"
        }
      ],
      "name": "transferFrom",
      "outputs": [],
      "stateMutability": "nonpayable",
      "type": "function"
    }
  ],
  "bytecode": "0x60806040523480156200001157600080fd5b50604051620055b0380380620055b08339818101604052810190620000379190620001e6565b6040518060400160405280600b81526020017f4c6f6f6769652054616e6b0000000000000000000000000000000000000000008152506040518060400160405280600881526020017f4c4f4f4754414e4b0000000000000000000000000000000000000000000000008152508160009080519060200190620000bb9291906200011f565b508060019080519060200190620000d49291906200011f565b50505080600b60006101000a81548173ffffffffffffffffffffffffffffffffffffffff021916908373ffffffffffffffffffffffffffffffffffffffff16021790555050620002c5565b8280546200012d9062000246565b90600052602060002090601f0160209004810192826200015157600085556200019d565b82601f106200016c57805160ff19168380011785556200019d565b828001600101855582156200019d579182015b828111156200019c5782518255916020019190600101906200017f565b5b509050620001ac9190620001b0565b5090565b5b80821115620001cb576000816000905550600101620001b1565b5090565b600081519050620001e081620002ab565b92915050565b600060208284031215620001f957600080fd5b60006200020984828501620001cf565b91505092915050565b60006200021f8262000226565b9050919050565b600073ffffffffffffffffffffffffffffffffffffffff82169050919050565b600060028204905060018216806200025f57607f821691505b602082108114156200027657620002756200027c565b5b50919050565b7f4e487b7100000000000000000000000000000000000000000000000000000000600052602260045260246000fd5b620002b68162000212565b8114620002c257600080fd5b50565b6152db80620002d56000396000f3fe608060405234801561001057600080fd5b506004361061012c5760003560e01c80636352211e116100ad578063a2d6c6da11610071578063a2d6c6da14610367578063b88d4fde14610397578063c87b56dd146103b3578063e985e9c5146103e3578063eb93406b146104135761012c565b80636352211e146102b157806370a08231146102e157806390793dfc1461031157806395d89b411461032d578063a22cb4651461034b5761012c565b806318160ddd116100f457806318160ddd146101fb57806323b872dd146102195780632f745c591461023557806342842e0e146102655780634f6ccce7146102815761012c565b806301ffc9a71461013157806306fdde0314610161578063081812fc1461017f578063095ea7b3146101af578063150b7a02146101cb575b600080fd5b61014b6004803603810190610146919061332a565b610431565b6040516101589190613e32565b60405180910390f35b6101696104ab565b6040516101769190613e68565b60405180910390f35b610199600480360381019061019491906133bd565b61053d565b6040516101a69190613d94565b60405180910390f35b6101c960048036038101906101c491906132c5565b6105c2565b005b6101e560048036038101906101e0919061318e565b6106da565b6040516101f29190613e4d565b60405180910390f35b61020361097d565b604051610210919061410a565b60405180910390f35b610233600480360381019061022e919061313f565b61098a565b005b61024f600480360381019061024a91906132c5565b6109ea565b60405161025c919061410a565b60405180910390f35b61027f600480360381019061027a919061313f565b610a8f565b005b61029b600480360381019061029691906133bd565b610aaf565b6040516102a8919061410a565b60405180910390f35b6102cb60048036038101906102c691906133bd565b610b46565b6040516102d89190613d94565b60405180910390f35b6102fb60048036038101906102f691906130da565b610bf8565b604051610308919061410a565b60405180910390f35b61032b600480360381019061032691906133bd565b610cb0565b005b610335610e6b565b6040516103429190613e68565b60405180910390f35b61036560048036038101906103609190613289565b610efd565b005b610381600480360381019061037c91906133bd565b61107e565b60405161038e9190613e68565b60405180910390f35b6103b160048036038101906103ac919061320e565b6110b5565b005b6103cd60048036038101906103c891906133bd565b611117565b6040516103da9190613e68565b60405180910390f35b6103fd60048036038101906103f89190613103565b611256565b60405161040a9190613e32565b60405180910390f35b61041b6112ea565b604051610428919061410a565b60405180910390f35b60007f780e9d63000000000000000000000000000000000000000000000000000000007bffffffffffffffffffffffffffffffffffffffffffffffffffffffff1916827bffffffffffffffffffffffffffffffffffffffffffffffffffffffff191614806104a457506104a382611315565b5b9050919050565b6060600080546104ba906144c9565b80601f01602080910402602001604051908101604052809291908181526020018280546104e6906144c9565b80156105335780601f1061050857610100808354040283529160200191610533565b820191906000526020600020905b81548152906001019060200180831161051657829003601f168201915b5050505050905090565b6000610548826113f7565b610587576040517f08c379a000000000000000000000000000000000000000000000000000000000815260040161057e9061404a565b60405180910390fd5b6004600083815260200190815260200160002060009054906101000a900473ffffffffffffffffffffffffffffffffffffffff169050919050565b60006105cd82610b46565b90508073ffffffffffffffffffffffffffffffffffffffff168373ffffffffffffffffffffffffffffffffffffffff16141561063e576040517f08c379a00000000000000000000000000000000000000000000000000000000081526004016106359061408a565b60405180910390fd5b8073ffffffffffffffffffffffffffffffffffffffff1661065d611463565b73ffffffffffffffffffffffffffffffffffffffff16148061068c575061068b81610686611463565b611256565b5b6106cb576040517f08c379a00000000000000000000000000000000000000000000000000000000081526004016106c290613faa565b60405180910390fd5b6106d5838361146b565b505050565b60008061072a84848080601f016020809104026020016040519081016040528093929190818152602001838380828437600081840152601f19601f82011690508083019250505050505050611524565b90508573ffffffffffffffffffffffffffffffffffffffff1661074c82610b46565b73ffffffffffffffffffffffffffffffffffffffff16146107a2576040517f08c379a000000000000000000000000000000000000000000000000000000000815260040161079990613e8a565b60405180910390fd5b610100600c600083815260200190815260200160002080549050106107fc576040517f08c379a00000000000000000000000000000000000000000000000000000000081526004016107f390613eea565b60405180910390fd5b600c600082815260200190815260200160002085908060018154018082558091505060019003906000526020600020016000909190919091505560006001436108459190614383565b40873088888860405160200161086096959493929190613aed565b604051602081830303815290604052805190602001209050806000602081106108b2577f4e487b7100000000000000000000000000000000000000000000000000000000600052603260045260246000fd5b1a60f81b60f81c600d600088815260200190815260200160002060006101000a81548160ff021916908360ff1602179055508060016020811061091e577f4e487b7100000000000000000000000000000000000000000000000000000000600052603260045260246000fd5b1a60f81b60f81c600e600088815260200190815260200160002060006101000a81548160ff021916908360ff16021790555043600f60008881526020019081526020016000208190555063150b7a0260e01b9250505095945050505050565b6000600880549050905090565b61099b610995611463565b8261157d565b6109da576040517f08c379a00000000000000000000000000000000000000000000000000000000081526004016109d1906140aa565b60405180910390fd5b6109e583838361165b565b505050565b60006109f583610bf8565b8210610a36576040517f08c379a0000000000000000000000000000000000000000000000000000000008152600401610a2d90613eaa565b60405180910390fd5b600660008473ffffffffffffffffffffffffffffffffffffffff1673ffffffffffffffffffffffffffffffffffffffff168152602001908152602001600020600083815260200190815260200160002054905092915050565b610aaa838383604051806020016040528060008152506110b5565b505050565b6000610ab961097d565b8210610afa576040517f08c379a0000000000000000000000000000000000000000000000000000000008152600401610af1906140ca565b60405180910390fd5b60088281548110610b34577f4e487b7100000000000000000000000000000000000000000000000000000000600052603260045260246000fd5b90600052602060002001549050919050565b6000806002600084815260200190815260200160002060009054906101000a900473ffffffffffffffffffffffffffffffffffffffff169050600073ffffffffffffffffffffffffffffffffffffffff168173ffffffffffffffffffffffffffffffffffffffff161415610bef576040517f08c379a0000000000000000000000000000000000000000000000000000000008152600401610be690613fea565b60405180910390fd5b80915050919050565b60008073ffffffffffffffffffffffffffffffffffffffff168273ffffffffffffffffffffffffffffffffffffffff161415610c69576040517f08c379a0000000000000000000000000000000000000000000000000000000008152600401610c6090613fca565b60405180910390fd5b600360008373ffffffffffffffffffffffffffffffffffffffff1673ffffffffffffffffffffffffffffffffffffffff168152602001908152602001600020549050919050565b610cb981610b46565b73ffffffffffffffffffffffffffffffffffffffff163373ffffffffffffffffffffffffffffffffffffffff1614610d26576040517f08c379a0000000000000000000000000000000000000000000000000000000008152600401610d1d906140ea565b60405180910390fd5b60005b600c600083815260200190815260200160002080549050811015610e4857600b60009054906101000a900473ffffffffffffffffffffffffffffffffffffffff1673ffffffffffffffffffffffffffffffffffffffff166323b872dd30610d8f85610b46565b600c60008781526020019081526020016000208581548110610dda577f4e487b7100000000000000000000000000000000000000000000000000000000600052603260045260246000fd5b90600052602060002001546040518463ffffffff1660e01b8152600401610e0393929190613daf565b600060405180830381600087803b158015610e1d57600080fd5b505af1158015610e31573d6000803e3d6000fd5b505050508080610e409061452c565b915050610d29565b50600c60008281526020019081526020016000206000610e689190612f04565b50565b606060018054610e7a906144c9565b80601f0160208091040260200160405190810160405280929190818152602001828054610ea6906144c9565b8015610ef35780601f10610ec857610100808354040283529160200191610ef3565b820191906000526020600020905b815481529060010190602001808311610ed657829003601f168201915b5050505050905090565b610f05611463565b73ffffffffffffffffffffffffffffffffffffffff168273ffffffffffffffffffffffffffffffffffffffff161415610f73576040517f08c379a0000000000000000000000000000000000000000000000000000000008152600401610f6a90613f4a565b60405180910390fd5b8060056000610f80611463565b73ffffffffffffffffffffffffffffffffffffffff1673ffffffffffffffffffffffffffffffffffffffff16815260200190815260200160002060008473ffffffffffffffffffffffffffffffffffffffff1673ffffffffffffffffffffffffffffffffffffffff16815260200190815260200160002060006101000a81548160ff0219169083151502179055508173ffffffffffffffffffffffffffffffffffffffff1661102d611463565b73ffffffffffffffffffffffffffffffffffffffff167f17307eab39ab6107e8899845ad3d59bd9653f200f220920489ca2b5937696c31836040516110729190613e32565b60405180910390a35050565b6060600061108b836118b7565b60405160200161109b9190613d0d565b604051602081830303815290604052905080915050919050565b6110c66110c0611463565b8361157d565b611105576040517f08c379a00000000000000000000000000000000000000000000000000000000081526004016110fc906140aa565b60405180910390fd5b61111184848484611f18565b50505050565b6060611122826113f7565b611161576040517f08c379a000000000000000000000000000000000000000000000000000000000815260040161115890613f8a565b60405180910390fd5b600061116c83611f74565b60405160200161117c9190613ceb565b6040516020818303038152906040529050600060405160200161119e90613cd6565b604051602081830303815290604052905060006111c26111bd86612121565b612158565b905061122d83836111d288611f74565b61120460146111e08b610b46565b73ffffffffffffffffffffffffffffffffffffffff1661230390919063ffffffff16565b85604051602001611219959493929190613c3e565b604051602081830303815290604052612158565b60405160200161123d9190613d45565b6040516020818303038152906040529350505050919050565b6000600560008473ffffffffffffffffffffffffffffffffffffffff1673ffffffffffffffffffffffffffffffffffffffff16815260200190815260200160002060008373ffffffffffffffffffffffffffffffffffffffff1673ffffffffffffffffffffffffffffffffffffffff16815260200190815260200160002060009054906101000a900460ff16905092915050565b60006112f6600a6125ba565b6000611302600a6125d0565b905061130e33826125de565b8091505090565b60007f80ac58cd000000000000000000000000000000000000000000000000000000007bffffffffffffffffffffffffffffffffffffffffffffffffffffffff1916827bffffffffffffffffffffffffffffffffffffffffffffffffffffffff191614806113e057507f5b5e139f000000000000000000000000000000000000000000000000000000007bffffffffffffffffffffffffffffffffffffffffffffffffffffffff1916827bffffffffffffffffffffffffffffffffffffffffffffffffffffffff1916145b806113f057506113ef826127ac565b5b9050919050565b60008073ffffffffffffffffffffffffffffffffffffffff166002600084815260200190815260200160002060009054906101000a900473ffffffffffffffffffffffffffffffffffffffff1673ffffffffffffffffffffffffffffffffffffffff1614159050919050565b600033905090565b816004600083815260200190815260200160002060006101000a81548173ffffffffffffffffffffffffffffffffffffffff021916908373ffffffffffffffffffffffffffffffffffffffff160217905550808273ffffffffffffffffffffffffffffffffffffffff166114de83610b46565b73ffffffffffffffffffffffffffffffffffffffff167f8c5be1e5ebec7d5bd14f71427d1e84f3dd0314c0f7b2291e5b200ac8c7c3b92560405160405180910390a45050565b600060208251101561156b576040517f08c379a00000000000000000000000000000000000000000000000000000000081526004016115629061400a565b60405180910390fd5b60006020830151905080915050919050565b6000611588826113f7565b6115c7576040517f08c379a00000000000000000000000000000000000000000000000000000000081526004016115be90613f6a565b60405180910390fd5b60006115d283610b46565b90508073ffffffffffffffffffffffffffffffffffffffff168473ffffffffffffffffffffffffffffffffffffffff16148061164157508373ffffffffffffffffffffffffffffffffffffffff166116298461053d565b73ffffffffffffffffffffffffffffffffffffffff16145b8061165257506116518185611256565b5b91505092915050565b8273ffffffffffffffffffffffffffffffffffffffff1661167b82610b46565b73ffffffffffffffffffffffffffffffffffffffff16146116d1576040517f08c379a00000000000000000000000000000000000000000000000000000000081526004016116c89061406a565b60405180910390fd5b600073ffffffffffffffffffffffffffffffffffffffff168273ffffffffffffffffffffffffffffffffffffffff161415611741576040517f08c379a000000000000000000000000000000000000000000000000000000000815260040161173890613f2a565b60405180910390fd5b61174c838383612816565b61175760008261146b565b6001600360008573ffffffffffffffffffffffffffffffffffffffff1673ffffffffffffffffffffffffffffffffffffffff16815260200190815260200160002060008282546117a79190614383565b925050819055506001600360008473ffffffffffffffffffffffffffffffffffffffff1673ffffffffffffffffffffffffffffffffffffffff16815260200190815260200160002060008282546117fe9190614232565b92505081905550816002600083815260200190815260200160002060006101000a81548173ffffffffffffffffffffffffffffffffffffffff021916908373ffffffffffffffffffffffffffffffffffffffff160217905550808273ffffffffffffffffffffffffffffffffffffffff168473ffffffffffffffffffffffffffffffffffffffff167fddf252ad1be2c89b69c2b068fc378daa952ba7f163c4a11628f55a4df523b3ef60405160405180910390a4505050565b6060600060405180602001604052806000815250905060005b600c6000858152602001908152602001600020805490508160ff161015611f0e576000610100600f6000600c60008981526020019081526020016000208560ff1681548110611948577f4e487b7100000000000000000000000000000000000000000000000000000000600052603260045260246000fd5b90600052602060002001548152602001908152602001600020544361196d9190614383565b6119779190614608565b90506000600b60009054906101000a900473ffffffffffffffffffffffffffffffffffffffff1673ffffffffffffffffffffffffffffffffffffffff1663ab1aa1c5600c60008981526020019081526020016000208560ff1681548110611a07577f4e487b7100000000000000000000000000000000000000000000000000000000600052603260045260246000fd5b90600052602060002001546040518263ffffffff1660e01b8152600401611a2e919061410a565b60206040518083038186803b158015611a4657600080fd5b505afa158015611a5a573d6000803e3d6000fd5b505050506040513d601f19601f82011682018060405250810190611a7e9190613301565b600060208110611ab7577f4e487b7100000000000000000000000000000000000000000000000000000000600052603260045260246000fd5b1a60f81b60f81c90506000600b60009054906101000a900473ffffffffffffffffffffffffffffffffffffffff1673ffffffffffffffffffffffffffffffffffffffff1663ab1aa1c5600c60008a81526020019081526020016000208660ff1681548110611b4e577f4e487b7100000000000000000000000000000000000000000000000000000000600052603260045260246000fd5b90600052602060002001546040518263ffffffff1660e01b8152600401611b75919061410a565b60206040518083038186803b158015611b8d57600080fd5b505afa158015611ba1573d6000803e3d6000fd5b505050506040513d601f19601f82011682018060405250810190611bc59190613301565b600160208110611bfe577f4e487b7100000000000000000000000000000000000000000000000000000000600052603260045260246000fd5b1a60f81b60f81c9050600080611c8d8486600d6000600c60008f81526020019081526020016000208b60ff1681548110611c61577f4e487b7100000000000000000000000000000000000000000000000000000000600052603260045260246000fd5b9060005260206000200154815260200190815260200160002060009054906101000a900460ff1661292a565b9150611d128386600e6000600c60008f81526020019081526020016000208b60ff1681548110611ce6577f4e487b7100000000000000000000000000000000000000000000000000000000600052603260045260246000fd5b9060005260206000200154815260200190815260200160002060009054906101000a900460ff1661292a565b905086611d218360ff16611f74565b611d2d8360ff16611f74565b604051602001611d3f93929190613b91565b604051602081830303815290604052965060005b60648160ff161015611dca57611d6b8560018561292a565b9250611d798460018461292a565b915087611d888460ff16611f74565b611d948460ff16611f74565b604051602001611da693929190613b4a565b60405160208183030381529060405297508080611dc290614575565b915050611d53565b5086600b60009054906101000a900473ffffffffffffffffffffffffffffffffffffffff1673ffffffffffffffffffffffffffffffffffffffff1663a2d6c6da600c60008d81526020019081526020016000208960ff1681548110611e58577f4e487b7100000000000000000000000000000000000000000000000000000000600052603260045260246000fd5b90600052602060002001546040518263ffffffff1660e01b8152600401611e7f919061410a565b60006040518083038186803b158015611e9757600080fd5b505afa158015611eab573d6000803e3d6000fd5b505050506040513d6000823e3d601f19601f82011682018060405250810190611ed4919061337c565b604051602001611ee5929190613bf9565b604051602081830303815290604052965050505050508080611f0690614575565b9150506118d0565b5080915050919050565b611f2384848461165b565b611f2f848484846129dd565b611f6e576040517f08c379a0000000000000000000000000000000000000000000000000000000008152600401611f6590613eca565b60405180910390fd5b50505050565b60606000821415611fbc576040518060400160405280600181526020017f3000000000000000000000000000000000000000000000000000000000000000815250905061211c565b600082905060005b60008214611fee578080611fd79061452c565b915050600a82611fe79190614288565b9150611fc4565b60008167ffffffffffffffff811115612030577f4e487b7100000000000000000000000000000000000000000000000000000000600052604160045260246000fd5b6040519080825280601f01601f1916602001820160405280156120625781602001600182028036833780820191505090505b5090505b600085146121155760018261207b9190614383565b9150600a8561208a9190614608565b60306120969190614232565b60f81b8183815181106120d2577f4e487b7100000000000000000000000000000000000000000000000000000000600052603260045260246000fd5b60200101907effffffffffffffffffffffffffffffffffffffffffffffffffffffffffffff1916908160001a905350600a8561210e9190614288565b9450612066565b8093505050505b919050565b6060600061212e8361107e565b60405160200161213e9190613d67565b604051602081830303815290604052905080915050919050565b606060008251141561217b576040518060200160405280600081525090506122fe565b600060405180606001604052806040815260200161526660409139905060006003600285516121aa9190614232565b6121b49190614288565b60046121c091906142f5565b905060006020826121d19190614232565b67ffffffffffffffff811115612210577f4e487b7100000000000000000000000000000000000000000000000000000000600052604160045260246000fd5b6040519080825280601f01601f1916602001820160405280156122425781602001600182028036833780820191505090505b509050818152600183018586518101602084015b818310156122bd576003830192508251603f8160121c1685015160f81b8252600182019150603f81600c1c1685015160f81b8252600182019150603f8160061c1685015160f81b8252600182019150603f811685015160f81b825260018201915050612256565b6003895106600181146122d757600281146122e7576122f2565b613d3d60f01b60028303526122f2565b603d60f81b60018303525b50505050508093505050505b919050565b60606000600283600261231691906142f5565b6123209190614232565b67ffffffffffffffff81111561235f577f4e487b7100000000000000000000000000000000000000000000000000000000600052604160045260246000fd5b6040519080825280601f01601f1916602001820160405280156123915781602001600182028036833780820191505090505b5090507f3000000000000000000000000000000000000000000000000000000000000000816000815181106123ef577f4e487b7100000000000000000000000000000000000000000000000000000000600052603260045260246000fd5b60200101907effffffffffffffffffffffffffffffffffffffffffffffffffffffffffffff1916908160001a9053507f780000000000000000000000000000000000000000000000000000000000000081600181518110612479577f4e487b7100000000000000000000000000000000000000000000000000000000600052603260045260246000fd5b60200101907effffffffffffffffffffffffffffffffffffffffffffffffffffffffffffff1916908160001a905350600060018460026124b991906142f5565b6124c39190614232565b90505b60018111156125af577f3031323334353637383961626364656600000000000000000000000000000000600f86166010811061252b577f4e487b7100000000000000000000000000000000000000000000000000000000600052603260045260246000fd5b1a60f81b828281518110612568577f4e487b7100000000000000000000000000000000000000000000000000000000600052603260045260246000fd5b60200101907effffffffffffffffffffffffffffffffffffffffffffffffffffffffffffff1916908160001a905350600485901c9450806125a89061449f565b90506124c6565b508091505092915050565b6001816000016000828254019250508190555050565b600081600001549050919050565b600073ffffffffffffffffffffffffffffffffffffffff168273ffffffffffffffffffffffffffffffffffffffff16141561264e576040517f08c379a00000000000000000000000000000000000000000000000000000000081526004016126459061402a565b60405180910390fd5b612657816113f7565b15612697576040517f08c379a000000000000000000000000000000000000000000000000000000000815260040161268e90613f0a565b60405180910390fd5b6126a360008383612816565b6001600360008473ffffffffffffffffffffffffffffffffffffffff1673ffffffffffffffffffffffffffffffffffffffff16815260200190815260200160002060008282546126f39190614232565b92505081905550816002600083815260200190815260200160002060006101000a81548173ffffffffffffffffffffffffffffffffffffffff021916908373ffffffffffffffffffffffffffffffffffffffff160217905550808273ffffffffffffffffffffffffffffffffffffffff16600073ffffffffffffffffffffffffffffffffffffffff167fddf252ad1be2c89b69c2b068fc378daa952ba7f163c4a11628f55a4df523b3ef60405160405180910390a45050565b60007f01ffc9a7000000000000000000000000000000000000000000000000000000007bffffffffffffffffffffffffffffffffffffffffffffffffffffffff1916827bffffffffffffffffffffffffffffffffffffffffffffffffffffffff1916149050919050565b612821838383612b74565b600073ffffffffffffffffffffffffffffffffffffffff168373ffffffffffffffffffffffffffffffffffffffff1614156128645761285f81612b79565b6128a3565b8173ffffffffffffffffffffffffffffffffffffffff168373ffffffffffffffffffffffffffffffffffffffff16146128a2576128a18382612bc2565b5b5b600073ffffffffffffffffffffffffffffffffffffffff168273ffffffffffffffffffffffffffffffffffffffff1614156128e6576128e181612d2f565b612925565b8273ffffffffffffffffffffffffffffffffffffffff168273ffffffffffffffffffffffffffffffffffffffff1614612924576129238282612e72565b5b5b505050565b6000806000808660000b1261297f576101008660ff168661294b91906142b9565b61295591906145d7565b9150610100828560ff1661296991906141fa565b61297391906145d7565b905080925050506129d6565b6101008661298c90614639565b60ff168661299a91906142b9565b6129a491906145d7565b91506101008460ff168360ff6129ba919061434f565b6129c491906141fa565b6129ce91906145d7565b905080925050505b9392505050565b60006129fe8473ffffffffffffffffffffffffffffffffffffffff16612ef1565b15612b67578373ffffffffffffffffffffffffffffffffffffffff1663150b7a02612a27611463565b8786866040518563ffffffff1660e01b8152600401612a499493929190613de6565b602060405180830381600087803b158015612a6357600080fd5b505af1925050508015612a9457506040513d601f19601f82011682018060405250810190612a919190613353565b60015b612b17573d8060008114612ac4576040519150601f19603f3d011682016040523d82523d6000602084013e612ac9565b606091505b50600081511415612b0f576040517f08c379a0000000000000000000000000000000000000000000000000000000008152600401612b0690613eca565b60405180910390fd5b805181602001fd5b63150b7a0260e01b7bffffffffffffffffffffffffffffffffffffffffffffffffffffffff1916817bffffffffffffffffffffffffffffffffffffffffffffffffffffffff191614915050612b6c565b600190505b949350505050565b505050565b6008805490506009600083815260200190815260200160002081905550600881908060018154018082558091505060019003906000526020600020016000909190919091505550565b60006001612bcf84610bf8565b612bd99190614383565b9050600060076000848152602001908152602001600020549050818114612cbe576000600660008673ffffffffffffffffffffffffffffffffffffffff1673ffffffffffffffffffffffffffffffffffffffff168152602001908152602001600020600084815260200190815260200160002054905080600660008773ffffffffffffffffffffffffffffffffffffffff1673ffffffffffffffffffffffffffffffffffffffff168152602001908152602001600020600084815260200190815260200160002081905550816007600083815260200190815260200160002081905550505b6007600084815260200190815260200160002060009055600660008573ffffffffffffffffffffffffffffffffffffffff1673ffffffffffffffffffffffffffffffffffffffff16815260200190815260200160002060008381526020019081526020016000206000905550505050565b60006001600880549050612d439190614383565b9050600060096000848152602001908152602001600020549050600060088381548110612d99577f4e487b7100000000000000000000000000000000000000000000000000000000600052603260045260246000fd5b906000526020600020015490508060088381548110612de1577f4e487b7100000000000000000000000000000000000000000000000000000000600052603260045260246000fd5b906000526020600020018190555081600960008381526020019081526020016000208190555060096000858152602001908152602001600020600090556008805480612e56577f4e487b7100000000000000000000000000000000000000000000000000000000600052603160045260246000fd5b6001900381819060005260206000200160009055905550505050565b6000612e7d83610bf8565b905081600660008573ffffffffffffffffffffffffffffffffffffffff1673ffffffffffffffffffffffffffffffffffffffff168152602001908152602001600020600083815260200190815260200160002081905550806007600084815260200190815260200160002081905550505050565b600080823b905060008111915050919050565b5080546000825590600052602060002090810190612f229190612f25565b50565b5b80821115612f3e576000816000905550600101612f26565b5090565b6000612f55612f508461414a565b614125565b905082815260208101848484011115612f6d57600080fd5b612f7884828561445d565b509392505050565b6000612f93612f8e8461417b565b614125565b905082815260208101848484011115612fab57600080fd5b612fb684828561446c565b509392505050565b600081359050612fcd816151f2565b92915050565b600081359050612fe281615209565b92915050565b600081519050612ff781615220565b92915050565b60008135905061300c81615237565b92915050565b60008151905061302181615237565b92915050565b60008083601f84011261303957600080fd5b8235905067ffffffffffffffff81111561305257600080fd5b60208301915083600182028301111561306a57600080fd5b9250929050565b600082601f83011261308257600080fd5b8135613092848260208601612f42565b91505092915050565b600082601f8301126130ac57600080fd5b81516130bc848260208601612f80565b91505092915050565b6000813590506130d48161524e565b92915050565b6000602082840312156130ec57600080fd5b60006130fa84828501612fbe565b91505092915050565b6000806040838503121561311657600080fd5b600061312485828601612fbe565b925050602061313585828601612fbe565b9150509250929050565b60008060006060848603121561315457600080fd5b600061316286828701612fbe565b935050602061317386828701612fbe565b9250506040613184868287016130c5565b9150509250925092565b6000806000806000608086880312156131a657600080fd5b60006131b488828901612fbe565b95505060206131c588828901612fbe565b94505060406131d6888289016130c5565b935050606086013567ffffffffffffffff8111156131f357600080fd5b6131ff88828901613027565b92509250509295509295909350565b6000806000806080858703121561322457600080fd5b600061323287828801612fbe565b945050602061324387828801612fbe565b9350506040613254878288016130c5565b925050606085013567ffffffffffffffff81111561327157600080fd5b61327d87828801613071565b91505092959194509250565b6000806040838503121561329c57600080fd5b60006132aa85828601612fbe565b92505060206132bb85828601612fd3565b9150509250929050565b600080604083850312156132d857600080fd5b60006132e685828601612fbe565b92505060206132f7858286016130c5565b9150509250929050565b60006020828403121561331357600080fd5b600061332184828501612fe8565b91505092915050565b60006020828403121561333c57600080fd5b600061334a84828501612ffd565b91505092915050565b60006020828403121561336557600080fd5b600061337384828501613012565b91505092915050565b60006020828403121561338e57600080fd5b600082015167ffffffffffffffff8111156133a857600080fd5b6133b48482850161309b565b91505092915050565b6000602082840312156133cf57600080fd5b60006133dd848285016130c5565b91505092915050565b6133ef816143b7565b82525050565b613406613401826143b7565b61459f565b82525050565b613415816143c9565b82525050565b61342c613427826143d5565b6145b1565b82525050565b61343b816143df565b82525050565b600061344d83856141d3565b935061345a83858461445d565b82840190509392505050565b6000613471826141ac565b61347b81856141c2565b935061348b81856020860161446c565b6134948161473e565b840191505092915050565b60006134aa826141b7565b6134b481856141de565b93506134c481856020860161446c565b6134cd8161473e565b840191505092915050565b60006134e3826141b7565b6134ed81856141ef565b93506134fd81856020860161446c565b80840191505092915050565b6000613516602b836141de565b91506135218261475c565b604082019050919050565b60006135396009836141ef565b9150613544826147ab565b600982019050919050565b600061355c6003836141ef565b9150613567826147d4565b600382019050919050565b600061357f602b836141de565b915061358a826147fd565b604082019050919050565b60006135a26032836141de565b91506135ad8261484c565b604082019050919050565b60006135c5602e836141de565b91506135d08261489b565b604082019050919050565b60006135e8601c836141de565b91506135f3826148ea565b602082019050919050565b600061360b600b836141ef565b915061361682614913565b600b82019050919050565b600061362e6066836141ef565b91506136398261493c565b606682019050919050565b6000613651600c836141ef565b915061365c826149d7565b600c82019050919050565b60006136746024836141de565b915061367f82614a00565b604082019050919050565b60006136976019836141de565b91506136a282614a4f565b602082019050919050565b60006136ba602c836141de565b91506136c582614a78565b604082019050919050565b60006136dd6009836141de565b91506136e882614ac7565b602082019050919050565b60006137006001836141ef565b915061370b82614af0565b600182019050919050565b60006137236001836141ef565b915061372e82614b19565b600182019050919050565b60006137466038836141de565b915061375182614b42565b604082019050919050565b6000613769602a836141de565b915061377482614b91565b604082019050919050565b600061378c6029836141de565b915061379782614be0565b604082019050919050565b60006137af6002836141ef565b91506137ba82614c2f565b600282019050919050565b60006137d26015836141de565b91506137dd82614c58565b602082019050919050565b60006137f56020836141de565b915061380082614c81565b602082019050919050565b6000613818600d836141ef565b915061382382614caa565b600d82019050919050565b600061383b602c836141de565b915061384682614cd3565b604082019050919050565b600061385e6012836141ef565b915061386982614d22565b601282019050919050565b6000613881605a836141ef565b915061388c82614d4b565b605a82019050919050565b60006138a4600d836141ef565b91506138af82614dc0565b600d82019050919050565b60006138c76029836141de565b91506138d282614de9565b604082019050919050565b60006138ea6004836141ef565b91506138f582614e38565b600482019050919050565b600061390d605b836141ef565b915061391882614e61565b605b82019050919050565b60006139306003836141ef565b915061393b82614ed6565b600382019050919050565b60006139536021836141de565b915061395e82614eff565b604082019050919050565b60006139766022836141ef565b915061398182614f4e565b602282019050919050565b6000613999602f836141ef565b91506139a482614f9d565b602f82019050919050565b60006139bc601d836141ef565b91506139c782614fec565b601d82019050919050565b60006139df6031836141de565b91506139ea82615015565b604082019050919050565b6000613a02602c836141de565b9150613a0d82615064565b604082019050919050565b6000613a256041836141ef565b9150613a30826150b3565b604182019050919050565b6000613a486006836141ef565b9150613a5382615128565b600682019050919050565b6000613a6b6008836141ef565b9150613a7682615151565b600882019050919050565b6000613a8e601a836141ef565b9150613a998261517a565b601a82019050919050565b6000613ab16026836141de565b9150613abc826151a3565b604082019050919050565b613ad081614446565b82525050565b613ae7613ae282614446565b6145cd565b82525050565b6000613af9828961341b565b602082019150613b0982886133f5565b601482019150613b1982876133f5565b601482019150613b298286613ad6565b602082019150613b3a828486613441565b9150819050979650505050505050565b6000613b5682866134d8565b9150613b6282856134d8565b9150613b6d826136f3565b9150613b7982846134d8565b9150613b8482613716565b9150819050949350505050565b6000613b9d82866134d8565b9150613ba88261354f565b9150613bb382613621565b9150613bbe82613a5e565b9150613bca82856134d8565b9150613bd5826136f3565b9150613be182846134d8565b9150613bec82613716565b9150819050949350505050565b6000613c0582856134d8565b9150613c1082613923565b9150613c1b82613874565b9150613c2782846134d8565b9150613c32826138dd565b91508190509392505050565b6000613c498261352c565b9150613c5582886134d8565b9150613c6082613851565b9150613c6c82876134d8565b9150613c778261398c565b9150613c8382866134d8565b9150613c8e82613644565b9150613c9a82856134d8565b9150613ca58261380b565b9150613cb082613a81565b9150613cbc82846134d8565b9150613cc7826137a2565b91508190509695505050505050565b6000613ce1826135fe565b9150819050919050565b6000613cf682613897565b9150613d0282846134d8565b915081905092915050565b6000613d1882613900565b9150613d2382613969565b9150613d2f82846134d8565b9150613d3a826138dd565b915081905092915050565b6000613d50826139af565b9150613d5c82846134d8565b915081905092915050565b6000613d7282613a18565b9150613d7e82846134d8565b9150613d8982613a3b565b915081905092915050565b6000602082019050613da960008301846133e6565b92915050565b6000606082019050613dc460008301866133e6565b613dd160208301856133e6565b613dde6040830184613ac7565b949350505050565b6000608082019050613dfb60008301876133e6565b613e0860208301866133e6565b613e156040830185613ac7565b8181036060830152613e278184613466565b905095945050505050565b6000602082019050613e47600083018461340c565b92915050565b6000602082019050613e626000830184613432565b92915050565b60006020820190508181036000830152613e82818461349f565b905092915050565b60006020820190508181036000830152613ea381613509565b9050919050565b60006020820190508181036000830152613ec381613572565b9050919050565b60006020820190508181036000830152613ee381613595565b9050919050565b60006020820190508181036000830152613f03816135b8565b9050919050565b60006020820190508181036000830152613f23816135db565b9050919050565b60006020820190508181036000830152613f4381613667565b9050919050565b60006020820190508181036000830152613f638161368a565b9050919050565b60006020820190508181036000830152613f83816136ad565b9050919050565b60006020820190508181036000830152613fa3816136d0565b9050919050565b60006020820190508181036000830152613fc381613739565b9050919050565b60006020820190508181036000830152613fe38161375c565b9050919050565b600060208201905081810360008301526140038161377f565b9050919050565b60006020820190508181036000830152614023816137c5565b9050919050565b60006020820190508181036000830152614043816137e8565b9050919050565b600060208201905081810360008301526140638161382e565b9050919050565b60006020820190508181036000830152614083816138ba565b9050919050565b600060208201905081810360008301526140a381613946565b9050919050565b600060208201905081810360008301526140c3816139d2565b9050919050565b600060208201905081810360008301526140e3816139f5565b9050919050565b6000602082019050818103600083015261410381613aa4565b9050919050565b600060208201905061411f6000830184613ac7565b92915050565b600061412f614140565b905061413b82826144fb565b919050565b6000604051905090565b600067ffffffffffffffff8211156141655761416461470f565b5b61416e8261473e565b9050602081019050919050565b600067ffffffffffffffff8211156141965761419561470f565b5b61419f8261473e565b9050602081019050919050565b600081519050919050565b600081519050919050565b600082825260208201905092915050565b600081905092915050565b600082825260208201905092915050565b600081905092915050565b600061420582614418565b915061421083614418565b92508261ffff0382111561422757614226614682565b5b828201905092915050565b600061423d82614446565b915061424883614446565b9250827fffffffffffffffffffffffffffffffffffffffffffffffffffffffffffffffff0382111561427d5761427c614682565b5b828201905092915050565b600061429382614446565b915061429e83614446565b9250826142ae576142ad6146b1565b5b828204905092915050565b60006142c482614418565b91506142cf83614418565b92508161ffff04831182151516156142ea576142e9614682565b5b828202905092915050565b600061430082614446565b915061430b83614446565b9250817fffffffffffffffffffffffffffffffffffffffffffffffffffffffffffffffff048311821515161561434457614343614682565b5b828202905092915050565b600061435a82614418565b915061436583614418565b92508282101561437857614377614682565b5b828203905092915050565b600061438e82614446565b915061439983614446565b9250828210156143ac576143ab614682565b5b828203905092915050565b60006143c282614426565b9050919050565b60008115159050919050565b6000819050919050565b60007fffffffff0000000000000000000000000000000000000000000000000000000082169050919050565b60008160000b9050919050565b600061ffff82169050919050565b600073ffffffffffffffffffffffffffffffffffffffff82169050919050565b6000819050919050565b600060ff82169050919050565b82818337600083830152505050565b60005b8381101561448a57808201518184015260208101905061446f565b83811115614499576000848401525b50505050565b60006144aa82614446565b915060008214156144be576144bd614682565b5b600182039050919050565b600060028204905060018216806144e157607f821691505b602082108114156144f5576144f46146e0565b5b50919050565b6145048261473e565b810181811067ffffffffffffffff821117156145235761452261470f565b5b80604052505050565b600061453782614446565b91507fffffffffffffffffffffffffffffffffffffffffffffffffffffffffffffffff82141561456a57614569614682565b5b600182019050919050565b600061458082614450565b915060ff82141561459457614593614682565b5b600182019050919050565b60006145aa826145bb565b9050919050565b6000819050919050565b60006145c68261474f565b9050919050565b6000819050919050565b60006145e282614418565b91506145ed83614418565b9250826145fd576145fc6146b1565b5b828206905092915050565b600061461382614446565b915061461e83614446565b92508261462e5761462d6146b1565b5b828206905092915050565b60006146448261440b565b91507fffffffffffffffffffffffffffffffffffffffffffffffffffffffffffffff8082141561467757614676614682565b5b816000039050919050565b7f4e487b7100000000000000000000000000000000000000000000000000000000600052601160045260246000fd5b7f4e487b7100000000000000000000000000000000000000000000000000000000600052601260045260246000fd5b7f4e487b7100000000000000000000000000000000000000000000000000000000600052602260045260246000fd5b7f4e487b7100000000000000000000000000000000000000000000000000000000600052604160045260246000fd5b6000601f19601f8301169050919050565b60008160601b9050919050565b7f796f752063616e206f6e6c7920616464206c6f6f6769657320746f206120746160008201527f6e6b20796f75206f776e2e000000000000000000000000000000000000000000602082015250565b7f7b226e616d65223a220000000000000000000000000000000000000000000000600082015250565b7f3c673e0000000000000000000000000000000000000000000000000000000000600082015250565b7f455243373231456e756d657261626c653a206f776e657220696e646578206f7560008201527f74206f6620626f756e6473000000000000000000000000000000000000000000602082015250565b7f4552433732313a207472616e7366657220746f206e6f6e20455243373231526560008201527f63656976657220696d706c656d656e7465720000000000000000000000000000602082015250565b7f74616e6b20686173207265616368656420746865206d6178206c696d6974206f60008201527f6620323535206c6f6f676965732e000000000000000000000000000000000000602082015250565b7f4552433732313a20746f6b656e20616c7265616479206d696e74656400000000600082015250565b7f4c6f6f6769652054616e6b000000000000000000000000000000000000000000600082015250565b7f3c616e696d6174655472616e73666f726d206174747269627574654e616d653d60008201527f227472616e73666f726d22206475723d223135303073222066696c6c3d22667260208201527f65657a652220747970653d227472616e736c617465222061646469746976653d60408201527f2273756d22200000000000000000000000000000000000000000000000000000606082015250565b7f222c20226f776e6572223a220000000000000000000000000000000000000000600082015250565b7f4552433732313a207472616e7366657220746f20746865207a65726f2061646460008201527f7265737300000000000000000000000000000000000000000000000000000000602082015250565b7f4552433732313a20617070726f766520746f2063616c6c657200000000000000600082015250565b7f4552433732313a206f70657261746f7220717565727920666f72206e6f6e657860008201527f697374656e7420746f6b656e0000000000000000000000000000000000000000602082015250565b7f6e6f742065786973740000000000000000000000000000000000000000000000600082015250565b7f2000000000000000000000000000000000000000000000000000000000000000600082015250565b7f3b00000000000000000000000000000000000000000000000000000000000000600082015250565b7f4552433732313a20617070726f76652063616c6c6572206973206e6f74206f7760008201527f6e6572206e6f7220617070726f76656420666f7220616c6c0000000000000000602082015250565b7f4552433732313a2062616c616e636520717565727920666f7220746865207a6560008201527f726f206164647265737300000000000000000000000000000000000000000000602082015250565b7f4552433732313a206f776e657220717565727920666f72206e6f6e657869737460008201527f656e7420746f6b656e0000000000000000000000000000000000000000000000602082015250565b7f227d000000000000000000000000000000000000000000000000000000000000600082015250565b7f746f55696e743235365f6f75744f66426f756e64730000000000000000000000600082015250565b7f4552433732313a206d696e7420746f20746865207a65726f2061646472657373600082015250565b7f222c2022696d616765223a202200000000000000000000000000000000000000600082015250565b7f4552433732313a20617070726f76656420717565727920666f72206e6f6e657860008201527f697374656e7420746f6b656e0000000000000000000000000000000000000000602082015250565b7f222c20226465736372697074696f6e223a220000000000000000000000000000600082015250565b7f3c616e696d6174655472616e73666f726d206174747269627574654e616d653d60008201527f227472616e73666f726d2220747970653d227363616c6522206164646974697660208201527f653d2273756d222076616c7565733d22302e3320302e33222f3e000000000000604082015250565b7f4c6f6f6769652054616e6b202300000000000000000000000000000000000000600082015250565b7f4552433732313a207472616e73666572206f6620746f6b656e2074686174206960008201527f73206e6f74206f776e0000000000000000000000000000000000000000000000602082015250565b7f3c2f673e00000000000000000000000000000000000000000000000000000000600082015250565b7f3c7265637420783d22302220793d2230222077696474683d223237302220686560008201527f696768743d2232373022207374726f6b653d22626c61636b222066696c6c3d2260208201527f2338464239454222207374726f6b652d77696474683d2235222f3e0000000000604082015250565b7f222f3e0000000000000000000000000000000000000000000000000000000000600082015250565b7f4552433732313a20617070726f76616c20746f2063757272656e74206f776e6560008201527f7200000000000000000000000000000000000000000000000000000000000000602082015250565b7f3c67207472616e73666f726d3d227472616e736c617465282d3630202d36322960008201527f223e000000000000000000000000000000000000000000000000000000000000602082015250565b7f222c202265787465726e616c5f75726c223a2268747470733a2f2f6275726e7960008201527f626f79732e636f6d2f746f6b656e2f0000000000000000000000000000000000602082015250565b7f646174613a6170706c69636174696f6e2f6a736f6e3b6261736536342c000000600082015250565b7f4552433732313a207472616e736665722063616c6c6572206973206e6f74206f60008201527f776e6572206e6f7220617070726f766564000000000000000000000000000000602082015250565b7f455243373231456e756d657261626c653a20676c6f62616c20696e646578206f60008201527f7574206f6620626f756e64730000000000000000000000000000000000000000602082015250565b7f3c7376672077696474683d2232373022206865696768743d223237302220786d60008201527f6c6e733d22687474703a2f2f7777772e77332e6f72672f323030302f7376672260208201527f3e00000000000000000000000000000000000000000000000000000000000000604082015250565b7f3c2f7376673e0000000000000000000000000000000000000000000000000000600082015250565b7f76616c7565733d22000000000000000000000000000000000000000000000000600082015250565b7f646174613a696d6167652f7376672b786d6c3b6261736536342c000000000000600082015250565b7f6f6e6c792074616e6b206f776e65722063616e2072657475726e20746865206c60008201527f6f6f676965730000000000000000000000000000000000000000000000000000602082015250565b6151fb816143b7565b811461520657600080fd5b50565b615212816143c9565b811461521d57600080fd5b50565b615229816143d5565b811461523457600080fd5b50565b615240816143df565b811461524b57600080fd5b50565b61525781614446565b811461526257600080fd5b5056fe4142434445464748494a4b4c4d4e4f505152535455565758595a6162636465666768696a6b6c6d6e6f707172737475767778797a303132333435363738392b2fa264697066735822122012d6222bf94096b71c89a2f727f8093e0715765def6033e9878c02d43f1fe83464736f6c63430008040033",
  "linkReferences": {},
  "deployedLinkReferences": {}
}