{
  "_format": "hh-sol-artifact-1",
  "contractName": "Loogies",
  "sourceName": "contracts/Loogies.sol",
  "abi": [
    {
      "inputs": [],
      "stateMutability": "nonpayable",
      "type": "constructor"
    },
    {
      "anonymous": false,
      "inputs": [
        {
          "indexed": true,
          "internalType": "address",
          "name": "owner",
          "type": "address"
        },
        {
          "indexed": true,
          "internalType": "address",
          "name": "approved",
          "type": "address"
        },
        {
          "indexed": true,
          "internalType": "uint256",
          "name": "tokenId",
          "type": "uint256"
        }
      ],
      "name": "Approval",
      "type": "event"
    },
    {
      "anonymous": false,
      "inputs": [
        {
          "indexed": true,
          "internalType": "address",
          "name": "owner",
          "type": "address"
        },
        {
          "indexed": true,
          "internalType": "address",
          "name": "operator",
          "type": "address"
        },
        {
          "indexed": false,
          "internalType": "bool",
          "name": "approved",
          "type": "bool"
        }
      ],
      "name": "ApprovalForAll",
      "type": "event"
    },
    {
      "anonymous": false,
      "inputs": [
        {
          "indexed": true,
          "internalType": "address",
          "name": "previousOwner",
          "type": "address"
        },
        {
          "indexed": true,
          "internalType": "address",
          "name": "newOwner",
          "type": "address"
        }
      ],
      "name": "OwnershipTransferred",
      "type": "event"
    },
    {
      "anonymous": false,
      "inputs": [
        {
          "indexed": true,
          "internalType": "address",
          "name": "from",
          "type": "address"
        },
        {
          "indexed": true,
          "internalType": "address",
          "name": "to",
          "type": "address"
        },
        {
          "indexed": true,
          "internalType": "uint256",
          "name": "tokenId",
          "type": "uint256"
        }
      ],
      "name": "Transfer",
      "type": "event"
    },
    {
      "inputs": [
        {
          "internalType": "address",
          "name": "to",
          "type": "address"
        },
        {
          "internalType": "uint256",
          "name": "tokenId",
          "type": "uint256"
        }
      ],
      "name": "approve",
      "outputs": [],
      "stateMutability": "nonpayable",
      "type": "function"
    },
    {
      "inputs": [
        {
          "internalType": "address",
          "name": "owner",
          "type": "address"
        }
      ],
      "name": "balanceOf",
      "outputs": [
        {
          "internalType": "uint256",
          "name": "",
          "type": "uint256"
        }
      ],
      "stateMutability": "view",
      "type": "function"
    },
    {
      "inputs": [
        {
          "internalType": "uint256",
          "name": "",
          "type": "uint256"
        }
      ],
      "name": "chubbiness",
      "outputs": [
        {
          "internalType": "uint256",
          "name": "",
          "type": "uint256"
        }
      ],
      "stateMutability": "view",
      "type": "function"
    },
    {
      "inputs": [
        {
          "internalType": "uint256",
          "name": "",
          "type": "uint256"
        }
      ],
      "name": "color",
      "outputs": [
        {
          "internalType": "bytes3",
          "name": "",
          "type": "bytes3"
        }
      ],
      "stateMutability": "view",
      "type": "function"
    },
    {
      "inputs": [
        {
          "internalType": "uint256",
          "name": "",
          "type": "uint256"
        }
      ],
      "name": "genes",
      "outputs": [
        {
          "internalType": "bytes32",
          "name": "",
          "type": "bytes32"
        }
      ],
      "stateMutability": "view",
      "type": "function"
    },
    {
      "inputs": [
        {
          "internalType": "uint256",
          "name": "tokenId",
          "type": "uint256"
        }
      ],
      "name": "getApproved",
      "outputs": [
        {
          "internalType": "address",
          "name": "",
          "type": "address"
        }
      ],
      "stateMutability": "view",
      "type": "function"
    },
    {
      "inputs": [
        {
          "internalType": "address",
          "name": "owner",
          "type": "address"
        },
        {
          "internalType": "address",
          "name": "operator",
          "type": "address"
        }
      ],
      "name": "isApprovedForAll",
      "outputs": [
        {
          "internalType": "bool",
          "name": "",
          "type": "bool"
        }
      ],
      "stateMutability": "view",
      "type": "function"
    },
    {
      "inputs": [],
      "name": "mintItem",
      "outputs": [
        {
          "internalType": "uint256",
          "name": "",
          "type": "uint256"
        }
      ],
      "stateMutability": "nonpayable",
      "type": "function"
    },
    {
      "inputs": [],
      "name": "name",
      "outputs": [
        {
          "internalType": "string",
          "name": "",
          "type": "string"
        }
      ],
      "stateMutability": "view",
      "type": "function"
    },
    {
      "inputs": [],
      "name": "owner",
      "outputs": [
        {
          "internalType": "address",
          "name": "",
          "type": "address"
        }
      ],
      "stateMutability": "view",
      "type": "function"
    },
    {
      "inputs": [
        {
          "internalType": "uint256",
          "name": "tokenId",
          "type": "uint256"
        }
      ],
      "name": "ownerOf",
      "outputs": [
        {
          "internalType": "address",
          "name": "",
          "type": "address"
        }
      ],
      "stateMutability": "view",
      "type": "function"
    },
    {
      "inputs": [
        {
          "internalType": "uint256",
          "name": "id",
          "type": "uint256"
        }
      ],
      "name": "renderTokenById",
      "outputs": [
        {
          "internalType": "string",
          "name": "",
          "type": "string"
        }
      ],
      "stateMutability": "view",
      "type": "function"
    },
    {
      "inputs": [],
      "name": "renounceOwnership",
      "outputs": [],
      "stateMutability": "nonpayable",
      "type": "function"
    },
    {
      "inputs": [
        {
          "internalType": "address",
          "name": "from",
          "type": "address"
        },
        {
          "internalType": "address",
          "name": "to",
          "type": "address"
        },
        {
          "internalType": "uint256",
          "name": "tokenId",
          "type": "uint256"
        }
      ],
      "name": "safeTransferFrom",
      "outputs": [],
      "stateMutability": "nonpayable",
      "type": "function"
    },
    {
      "inputs": [
        {
          "internalType": "address",
          "name": "from",
          "type": "address"
        },
        {
          "internalType": "address",
          "name": "to",
          "type": "address"
        },
        {
          "internalType": "uint256",
          "name": "tokenId",
          "type": "uint256"
        },
        {
          "internalType": "bytes",
          "name": "_data",
          "type": "bytes"
        }
      ],
      "name": "safeTransferFrom",
      "outputs": [],
      "stateMutability": "nonpayable",
      "type": "function"
    },
    {
      "inputs": [
        {
          "internalType": "address",
          "name": "operator",
          "type": "address"
        },
        {
          "internalType": "bool",
          "name": "approved",
          "type": "bool"
        }
      ],
      "name": "setApprovalForAll",
      "outputs": [],
      "stateMutability": "nonpayable",
      "type": "function"
    },
    {
      "inputs": [
        {
          "internalType": "bytes4",
          "name": "interfaceId",
          "type": "bytes4"
        }
      ],
      "name": "supportsInterface",
      "outputs": [
        {
          "internalType": "bool",
          "name": "",
          "type": "bool"
        }
      ],
      "stateMutability": "view",
      "type": "function"
    },
    {
      "inputs": [],
      "name": "symbol",
      "outputs": [
        {
          "internalType": "string",
          "name": "",
          "type": "string"
        }
      ],
      "stateMutability": "view",
      "type": "function"
    },
    {
      "inputs": [
        {
          "internalType": "uint256",
          "name": "index",
          "type": "uint256"
        }
      ],
      "name": "tokenByIndex",
      "outputs": [
        {
          "internalType": "uint256",
          "name": "",
          "type": "uint256"
        }
      ],
      "stateMutability": "view",
      "type": "function"
    },
    {
      "inputs": [
        {
          "internalType": "address",
          "name": "owner",
          "type": "address"
        },
        {
          "internalType": "uint256",
          "name": "index",
          "type": "uint256"
        }
      ],
      "name": "tokenOfOwnerByIndex",
      "outputs": [
        {
          "internalType": "uint256",
          "name": "",
          "type": "uint256"
        }
      ],
      "stateMutability": "view",
      "type": "function"
    },
    {
      "inputs": [
        {
          "internalType": "uint256",
          "name": "id",
          "type": "uint256"
        }
      ],
      "name": "tokenURI",
      "outputs": [
        {
          "internalType": "string",
          "name": "",
          "type": "string"
        }
      ],
      "stateMutability": "view",
      "type": "function"
    },
    {
      "inputs": [],
      "name": "totalSupply",
      "outputs": [
        {
          "internalType": "uint256",
          "name": "",
          "type": "uint256"
        }
      ],
      "stateMutability": "view",
      "type": "function"
    },
    {
      "inputs": [
        {
          "internalType": "address",
          "name": "from",
          "type": "address"
        },
        {
          "internalType": "address",
          "name": "to",
          "type": "address"
        },
        {
          "internalType": "uint256",
          "name": "tokenId",
          "type": "uint256"
        }
      ],
      "name": "transferFrom",
      "outputs": [],
      "stateMutability": "nonpayable",
      "type": "function"
    },
    {
      "inputs": [
        {
          "internalType": "address",
          "name": "newOwner",
          "type": "address"
        }
      ],
      "name": "transferOwnership",
      "outputs": [],
      "stateMutability": "nonpayable",
      "type": "function"
    }
  ],
  "bytecode": "0x608060405262015180426200001591906200026a565b600f553480156200002557600080fd5b506040518060400160405280600781526020017f4c6f6f67696573000000000000000000000000000000000000000000000000008152506040518060400160405280600481526020017f4c4f4f47000000000000000000000000000000000000000000000000000000008152508160009080519060200190620000aa929190620001ba565b508060019080519060200190620000c3929190620001ba565b505050620000e6620000da620000ec60201b60201c565b620000f460201b60201c565b62000365565b600033905090565b6000600a60009054906101000a900473ffffffffffffffffffffffffffffffffffffffff16905081600a60006101000a81548173ffffffffffffffffffffffffffffffffffffffff021916908373ffffffffffffffffffffffffffffffffffffffff1602179055508173ffffffffffffffffffffffffffffffffffffffff168173ffffffffffffffffffffffffffffffffffffffff167f8be0079c531659141344cd1fd0a4f28419497f9722a3daafe3b4186f6b6457e060405160405180910390a35050565b828054620001c890620002d1565b90600052602060002090601f016020900481019282620001ec576000855562000238565b82601f106200020757805160ff191683800117855562000238565b8280016001018555821562000238579182015b82811115620002375782518255916020019190600101906200021a565b5b5090506200024791906200024b565b5090565b5b80821115620002665760008160009055506001016200024c565b5090565b60006200027782620002c7565b91506200028483620002c7565b9250827fffffffffffffffffffffffffffffffffffffffffffffffffffffffffffffffff03821115620002bc57620002bb62000307565b5b828201905092915050565b6000819050919050565b60006002820490506001821680620002ea57607f821691505b6020821081141562000301576200030062000336565b5b50919050565b7f4e487b7100000000000000000000000000000000000000000000000000000000600052601160045260246000fd5b7f4e487b7100000000000000000000000000000000000000000000000000000000600052602260045260246000fd5b61519880620003756000396000f3fe608060405234801561001057600080fd5b50600436106101585760003560e01c80638da5cb5b116100c3578063c87b56dd1161007c578063c87b56dd146103eb578063d4e28c9c1461041b578063e985e9c51461044b578063eb93406b1461047b578063f2fde38b14610499578063faa204e1146104b557610158565b80638da5cb5b1461031757806395d89b4114610335578063a22cb46514610353578063a2d6c6da1461036f578063ab1aa1c51461039f578063b88d4fde146103cf57610158565b80632f745c59116101155780632f745c591461023157806342842e0e146102615780634f6ccce71461027d5780636352211e146102ad57806370a08231146102dd578063715018a61461030d57610158565b806301ffc9a71461015d57806306fdde031461018d578063081812fc146101ab578063095ea7b3146101db57806318160ddd146101f757806323b872dd14610215575b600080fd5b6101776004803603810190610172919061323d565b6104e5565b6040516101849190613cf3565b60405180910390f35b61019561055f565b6040516101a29190613d44565b60405180910390f35b6101c560048036038101906101c0919061328f565b6105f1565b6040516101d29190613c8c565b60405180910390f35b6101f560048036038101906101f09190613201565b610676565b005b6101ff61078e565b60405161020c9190613fc6565b60405180910390f35b61022f600480360381019061022a91906130fb565b61079b565b005b61024b60048036038101906102469190613201565b6107fb565b6040516102589190613fc6565b60405180910390f35b61027b600480360381019061027691906130fb565b6108a0565b005b6102976004803603810190610292919061328f565b6108c0565b6040516102a49190613fc6565b60405180910390f35b6102c760048036038101906102c2919061328f565b610957565b6040516102d49190613c8c565b60405180910390f35b6102f760048036038101906102f29190613096565b610a09565b6040516103049190613fc6565b60405180910390f35b610315610ac1565b005b61031f610b49565b60405161032c9190613c8c565b60405180910390f35b61033d610b73565b60405161034a9190613d44565b60405180910390f35b61036d600480360381019061036891906131c5565b610c05565b005b6103896004803603810190610384919061328f565b610d86565b6040516103969190613d44565b60405180910390f35b6103b960048036038101906103b4919061328f565b610e1a565b6040516103c69190613d0e565b60405180910390f35b6103e960048036038101906103e4919061314a565b610e32565b005b6104056004803603810190610400919061328f565b610e94565b6040516104129190613d44565b60405180910390f35b6104356004803603810190610430919061328f565b6110a1565b6040516104429190613d29565b60405180910390f35b610465600480360381019061046091906130bf565b6110c1565b6040516104729190613cf3565b60405180910390f35b610483611155565b6040516104909190613fc6565b60405180910390f35b6104b360048036038101906104ae9190613096565b611497565b005b6104cf60048036038101906104ca919061328f565b61158f565b6040516104dc9190613fc6565b60405180910390f35b60007f780e9d63000000000000000000000000000000000000000000000000000000007bffffffffffffffffffffffffffffffffffffffffffffffffffffffff1916827bffffffffffffffffffffffffffffffffffffffffffffffffffffffff191614806105585750610557826115a7565b5b9050919050565b60606000805461056e906142e9565b80601f016020809104026020016040519081016040528092919081815260200182805461059a906142e9565b80156105e75780601f106105bc576101008083540402835291602001916105e7565b820191906000526020600020905b8154815290600101906020018083116105ca57829003601f168201915b5050505050905090565b60006105fc82611689565b61063b576040517f08c379a000000000000000000000000000000000000000000000000000000000815260040161063290613f06565b60405180910390fd5b6004600083815260200190815260200160002060009054906101000a900473ffffffffffffffffffffffffffffffffffffffff169050919050565b600061068182610957565b90508073ffffffffffffffffffffffffffffffffffffffff168373ffffffffffffffffffffffffffffffffffffffff1614156106f2576040517f08c379a00000000000000000000000000000000000000000000000000000000081526004016106e990613f66565b60405180910390fd5b8073ffffffffffffffffffffffffffffffffffffffff166107116116f5565b73ffffffffffffffffffffffffffffffffffffffff161480610740575061073f8161073a6116f5565b6110c1565b5b61077f576040517f08c379a000000000000000000000000000000000000000000000000000000000815260040161077690613e86565b60405180910390fd5b61078983836116fd565b505050565b6000600880549050905090565b6107ac6107a66116f5565b826117b6565b6107eb576040517f08c379a00000000000000000000000000000000000000000000000000000000081526004016107e290613f86565b60405180910390fd5b6107f6838383611894565b505050565b600061080683610a09565b8210610847576040517f08c379a000000000000000000000000000000000000000000000000000000000815260040161083e90613d66565b60405180910390fd5b600660008473ffffffffffffffffffffffffffffffffffffffff1673ffffffffffffffffffffffffffffffffffffffff168152602001908152602001600020600083815260200190815260200160002054905092915050565b6108bb83838360405180602001604052806000815250610e32565b505050565b60006108ca61078e565b821061090b576040517f08c379a000000000000000000000000000000000000000000000000000000000815260040161090290613fa6565b60405180910390fd5b60088281548110610945577f4e487b7100000000000000000000000000000000000000000000000000000000600052603260045260246000fd5b90600052602060002001549050919050565b6000806002600084815260200190815260200160002060009054906101000a900473ffffffffffffffffffffffffffffffffffffffff169050600073ffffffffffffffffffffffffffffffffffffffff168173ffffffffffffffffffffffffffffffffffffffff161415610a00576040517f08c379a00000000000000000000000000000000000000000000000000000000081526004016109f790613ec6565b60405180910390fd5b80915050919050565b60008073ffffffffffffffffffffffffffffffffffffffff168273ffffffffffffffffffffffffffffffffffffffff161415610a7a576040517f08c379a0000000000000000000000000000000000000000000000000000000008152600401610a7190613ea6565b60405180910390fd5b600360008373ffffffffffffffffffffffffffffffffffffffff1673ffffffffffffffffffffffffffffffffffffffff168152602001908152602001600020549050919050565b610ac96116f5565b73ffffffffffffffffffffffffffffffffffffffff16610ae7610b49565b73ffffffffffffffffffffffffffffffffffffffff1614610b3d576040517f08c379a0000000000000000000000000000000000000000000000000000000008152600401610b3490613f26565b60405180910390fd5b610b476000611af0565b565b6000600a60009054906101000a900473ffffffffffffffffffffffffffffffffffffffff16905090565b606060018054610b82906142e9565b80601f0160208091040260200160405190810160405280929190818152602001828054610bae906142e9565b8015610bfb5780601f10610bd057610100808354040283529160200191610bfb565b820191906000526020600020905b815481529060010190602001808311610bde57829003601f168201915b5050505050905090565b610c0d6116f5565b73ffffffffffffffffffffffffffffffffffffffff168273ffffffffffffffffffffffffffffffffffffffff161415610c7b576040517f08c379a0000000000000000000000000000000000000000000000000000000008152600401610c7290613e26565b60405180910390fd5b8060056000610c886116f5565b73ffffffffffffffffffffffffffffffffffffffff1673ffffffffffffffffffffffffffffffffffffffff16815260200190815260200160002060008473ffffffffffffffffffffffffffffffffffffffff1673ffffffffffffffffffffffffffffffffffffffff16815260200190815260200160002060006101000a81548160ff0219169083151502179055508173ffffffffffffffffffffffffffffffffffffffff16610d356116f5565b73ffffffffffffffffffffffffffffffffffffffff167f17307eab39ab6107e8899845ad3d59bd9653f200f220920489ca2b5937696c3183604051610d7a9190613cf3565b60405180910390a35050565b60606000610dd3600c600085815260200190815260200160002060009054906101000a900460e81b7cffffffffffffffffffffffffffffffffffffffffffffffffffffffffff1916611bb6565b610def600d600086815260200190815260200160002054611eb7565b604051602001610e00929190613b23565b604051602081830303815290604052905080915050919050565b600e6020528060005260406000206000915090505481565b610e43610e3d6116f5565b836117b6565b610e82576040517f08c379a0000000000000000000000000000000000000000000000000000000008152600401610e7990613f86565b60405180910390fd5b610e8e84848484612064565b50505050565b6060610e9f82611689565b610ede576040517f08c379a0000000000000000000000000000000000000000000000000000000008152600401610ed590613e66565b60405180910390fd5b6000610ee983611eb7565b604051602001610ef99190613bd6565b60405160208183030381529060405290506000610f55600c600086815260200190815260200160002060009054906101000a900460e81b7cffffffffffffffffffffffffffffffffffffffffffffffffffffffffff1916611bb6565b610f71600d6000878152602001908152602001600020546120c0565b604051602001610f82929190613c47565b60405160208183030381529060405290506000610fa6610fa186612295565b6122cc565b90506110788383610fb688611eb7565b610fff600c60008b815260200190815260200160002060009054906101000a900460e81b7cffffffffffffffffffffffffffffffffffffffffffffffffffffffffff1916611bb6565b61101b600d60008c8152602001908152602001600020546120c0565b61104d60146110298d610957565b73ffffffffffffffffffffffffffffffffffffffff1661247790919063ffffffff16565b876040516020016110649796959493929190613a5b565b6040516020818303038152906040526122cc565b6040516020016110889190613bf8565b6040516020818303038152906040529350505050919050565b600c6020528060005260406000206000915054906101000a900460e81b81565b6000600560008473ffffffffffffffffffffffffffffffffffffffff1673ffffffffffffffffffffffffffffffffffffffff16815260200190815260200160002060008373ffffffffffffffffffffffffffffffffffffffff1673ffffffffffffffffffffffffffffffffffffffff16815260200190815260200160002060009054906101000a900460ff16905092915050565b6000600f54421061119b576040517f08c379a000000000000000000000000000000000000000000000000000000000815260040161119290613de6565b60405180910390fd5b6111a5600b61272e565b60006111b1600b612744565b90506111bd3382612752565b6001436111ca9190614192565b4033306040516020016111df93929190613a1e565b60405160208183030381529060405280519060200120600e6000838152602001908152602001600020819055506010600e60008381526020019081526020016000205460026020811061125b577f4e487b7100000000000000000000000000000000000000000000000000000000600052603260045260246000fd5b1a60f81b7effffffffffffffffffffffffffffffffffffffffffffffffffffffffffffff19167cffffffffffffffffffffffffffffffffffffffffffffffffffffffffff1916901c6008600e6000848152602001908152602001600020546001602081106112f2577f4e487b7100000000000000000000000000000000000000000000000000000000600052603260045260246000fd5b1a60f81b7effffffffffffffffffffffffffffffffffffffffffffffffffffffffffffff19167dffffffffffffffffffffffffffffffffffffffffffffffffffffffffffff1916901c600e600084815260200190815260200160002054600060208110611388577f4e487b7100000000000000000000000000000000000000000000000000000000600052603260045260246000fd5b1a60f81b7effffffffffffffffffffffffffffffffffffffffffffffffffffffffffffff1916177dffffffffffffffffffffffffffffffffffffffffffffffffffffffffffff191617600c600083815260200190815260200160002060006101000a81548162ffffff021916908360e81c021790555060ff600e60008381526020019081526020016000205460036020811061144d577f4e487b7100000000000000000000000000000000000000000000000000000000600052603260045260246000fd5b1a60f81b60f81c60ff1660376114639190614138565b61146d9190614107565b6023611479919061407a565b600d6000838152602001908152602001600020819055508091505090565b61149f6116f5565b73ffffffffffffffffffffffffffffffffffffffff166114bd610b49565b73ffffffffffffffffffffffffffffffffffffffff1614611513576040517f08c379a000000000000000000000000000000000000000000000000000000000815260040161150a90613f26565b60405180910390fd5b600073ffffffffffffffffffffffffffffffffffffffff168173ffffffffffffffffffffffffffffffffffffffff161415611583576040517f08c379a000000000000000000000000000000000000000000000000000000000815260040161157a90613da6565b60405180910390fd5b61158c81611af0565b50565b600d6020528060005260406000206000915090505481565b60007f80ac58cd000000000000000000000000000000000000000000000000000000007bffffffffffffffffffffffffffffffffffffffffffffffffffffffff1916827bffffffffffffffffffffffffffffffffffffffffffffffffffffffff1916148061167257507f5b5e139f000000000000000000000000000000000000000000000000000000007bffffffffffffffffffffffffffffffffffffffffffffffffffffffff1916827bffffffffffffffffffffffffffffffffffffffffffffffffffffffff1916145b80611682575061168182612920565b5b9050919050565b60008073ffffffffffffffffffffffffffffffffffffffff166002600084815260200190815260200160002060009054906101000a900473ffffffffffffffffffffffffffffffffffffffff1673ffffffffffffffffffffffffffffffffffffffff1614159050919050565b600033905090565b816004600083815260200190815260200160002060006101000a81548173ffffffffffffffffffffffffffffffffffffffff021916908373ffffffffffffffffffffffffffffffffffffffff160217905550808273ffffffffffffffffffffffffffffffffffffffff1661177083610957565b73ffffffffffffffffffffffffffffffffffffffff167f8c5be1e5ebec7d5bd14f71427d1e84f3dd0314c0f7b2291e5b200ac8c7c3b92560405160405180910390a45050565b60006117c182611689565b611800576040517f08c379a00000000000000000000000000000000000000000000000000000000081526004016117f790613e46565b60405180910390fd5b600061180b83610957565b90508073ffffffffffffffffffffffffffffffffffffffff168473ffffffffffffffffffffffffffffffffffffffff16148061187a57508373ffffffffffffffffffffffffffffffffffffffff16611862846105f1565b73ffffffffffffffffffffffffffffffffffffffff16145b8061188b575061188a81856110c1565b5b91505092915050565b8273ffffffffffffffffffffffffffffffffffffffff166118b482610957565b73ffffffffffffffffffffffffffffffffffffffff161461190a576040517f08c379a000000000000000000000000000000000000000000000000000000000815260040161190190613f46565b60405180910390fd5b600073ffffffffffffffffffffffffffffffffffffffff168273ffffffffffffffffffffffffffffffffffffffff16141561197a576040517f08c379a000000000000000000000000000000000000000000000000000000000815260040161197190613e06565b60405180910390fd5b61198583838361298a565b6119906000826116fd565b6001600360008573ffffffffffffffffffffffffffffffffffffffff1673ffffffffffffffffffffffffffffffffffffffff16815260200190815260200160002060008282546119e09190614192565b925050819055506001600360008473ffffffffffffffffffffffffffffffffffffffff1673ffffffffffffffffffffffffffffffffffffffff1681526020019081526020016000206000828254611a37919061407a565b92505081905550816002600083815260200190815260200160002060006101000a81548173ffffffffffffffffffffffffffffffffffffffff021916908373ffffffffffffffffffffffffffffffffffffffff160217905550808273ffffffffffffffffffffffffffffffffffffffff168473ffffffffffffffffffffffffffffffffffffffff167fddf252ad1be2c89b69c2b068fc378daa952ba7f163c4a11628f55a4df523b3ef60405160405180910390a4505050565b6000600a60009054906101000a900473ffffffffffffffffffffffffffffffffffffffff16905081600a60006101000a81548173ffffffffffffffffffffffffffffffffffffffff021916908373ffffffffffffffffffffffffffffffffffffffff1602179055508173ffffffffffffffffffffffffffffffffffffffff168173ffffffffffffffffffffffffffffffffffffffff167f8be0079c531659141344cd1fd0a4f28419497f9722a3daafe3b4186f6b6457e060405160405180910390a35050565b60606000600667ffffffffffffffff811115611bfb577f4e487b7100000000000000000000000000000000000000000000000000000000600052604160045260246000fd5b6040519080825280601f01601f191660200182016040528015611c2d5781602001600182028036833780820191505090505b50905060005b6003811015611ead577f3031323334353637383961626364656600000000000000000000000000000000600f858360038110611c98577f4e487b7100000000000000000000000000000000000000000000000000000000600052603260045260246000fd5b1a60f81b60f81c1660ff1660108110611cda577f4e487b7100000000000000000000000000000000000000000000000000000000600052603260045260246000fd5b1a60f81b826001600284611cee9190614138565b611cf8919061407a565b81518110611d2f577f4e487b7100000000000000000000000000000000000000000000000000000000600052603260045260246000fd5b60200101907effffffffffffffffffffffffffffffffffffffffffffffffffffffffffffff1916908160001a9053507f3031323334353637383961626364656600000000000000000000000000000000600f6004868460038110611dbc577f4e487b7100000000000000000000000000000000000000000000000000000000600052603260045260246000fd5b1a60f81b7effffffffffffffffffffffffffffffffffffffffffffffffffffffffffffff1916901c60f81c1660ff1660108110611e22577f4e487b7100000000000000000000000000000000000000000000000000000000600052603260045260246000fd5b1a60f81b82600283611e349190614138565b81518110611e6b577f4e487b7100000000000000000000000000000000000000000000000000000000600052603260045260246000fd5b60200101907effffffffffffffffffffffffffffffffffffffffffffffffffffffffffffff1916908160001a9053508080611ea59061434c565b915050611c33565b5080915050919050565b60606000821415611eff576040518060400160405280600181526020017f3000000000000000000000000000000000000000000000000000000000000000815250905061205f565b600082905060005b60008214611f31578080611f1a9061434c565b915050600a82611f2a9190614107565b9150611f07565b60008167ffffffffffffffff811115611f73577f4e487b7100000000000000000000000000000000000000000000000000000000600052604160045260246000fd5b6040519080825280601f01601f191660200182016040528015611fa55781602001600182028036833780820191505090505b5090505b6000851461205857600182611fbe9190614192565b9150600a85611fcd91906143c3565b6030611fd9919061407a565b60f81b818381518110612015577f4e487b7100000000000000000000000000000000000000000000000000000000600052603260045260246000fd5b60200101907effffffffffffffffffffffffffffffffffffffffffffffffffffffffffffff1916908160001a905350600a856120519190614107565b9450611fa9565b8093505050505b919050565b61206f848484611894565b61207b84848484612a9e565b6120ba576040517f08c379a00000000000000000000000000000000000000000000000000000000081526004016120b190613d86565b60405180910390fd5b50505050565b60606000821415612108576040518060400160405280600181526020017f30000000000000000000000000000000000000000000000000000000000000008152509050612290565b600082905060005b6000821461213a5780806121239061434c565b915050600a826121339190614107565b9150612110565b60008167ffffffffffffffff81111561217c577f4e487b7100000000000000000000000000000000000000000000000000000000600052604160045260246000fd5b6040519080825280601f01601f1916602001820160405280156121ae5781602001600182028036833780820191505090505b50905060008290505b60008614612288576001816121cc9190614192565b90506000600a80886121de9190614107565b6121e89190614138565b876121f39190614192565b60306121ff91906140d0565b905060008160f81b905080848481518110612243577f4e487b7100000000000000000000000000000000000000000000000000000000600052603260045260246000fd5b60200101907effffffffffffffffffffffffffffffffffffffffffffffffffffffffffffff1916908160001a905350600a8861227f9190614107565b975050506121b7565b819450505050505b919050565b606060006122a283610d86565b6040516020016122b29190613c1a565b604051602081830303815290604052905080915050919050565b60606000825114156122ef57604051806020016040528060008152509050612472565b6000604051806060016040528060408152602001615123604091399050600060036002855161231e919061407a565b6123289190614107565b60046123349190614138565b90506000602082612345919061407a565b67ffffffffffffffff811115612384577f4e487b7100000000000000000000000000000000000000000000000000000000600052604160045260246000fd5b6040519080825280601f01601f1916602001820160405280156123b65781602001600182028036833780820191505090505b509050818152600183018586518101602084015b81831015612431576003830192508251603f8160121c1685015160f81b8252600182019150603f81600c1c1685015160f81b8252600182019150603f8160061c1685015160f81b8252600182019150603f811685015160f81b8252600182019150506123ca565b60038951066001811461244b576002811461245b57612466565b613d3d60f01b6002830352612466565b603d60f81b60018303525b50505050508093505050505b919050565b60606000600283600261248a9190614138565b612494919061407a565b67ffffffffffffffff8111156124d3577f4e487b7100000000000000000000000000000000000000000000000000000000600052604160045260246000fd5b6040519080825280601f01601f1916602001820160405280156125055781602001600182028036833780820191505090505b5090507f300000000000000000000000000000000000000000000000000000000000000081600081518110612563577f4e487b7100000000000000000000000000000000000000000000000000000000600052603260045260246000fd5b60200101907effffffffffffffffffffffffffffffffffffffffffffffffffffffffffffff1916908160001a9053507f7800000000000000000000000000000000000000000000000000000000000000816001815181106125ed577f4e487b7100000000000000000000000000000000000000000000000000000000600052603260045260246000fd5b60200101907effffffffffffffffffffffffffffffffffffffffffffffffffffffffffffff1916908160001a9053506000600184600261262d9190614138565b612637919061407a565b90505b6001811115612723577f3031323334353637383961626364656600000000000000000000000000000000600f86166010811061269f577f4e487b7100000000000000000000000000000000000000000000000000000000600052603260045260246000fd5b1a60f81b8282815181106126dc577f4e487b7100000000000000000000000000000000000000000000000000000000600052603260045260246000fd5b60200101907effffffffffffffffffffffffffffffffffffffffffffffffffffffffffffff1916908160001a905350600485901c94508061271c906142bf565b905061263a565b508091505092915050565b6001816000016000828254019250508190555050565b600081600001549050919050565b600073ffffffffffffffffffffffffffffffffffffffff168273ffffffffffffffffffffffffffffffffffffffff1614156127c2576040517f08c379a00000000000000000000000000000000000000000000000000000000081526004016127b990613ee6565b60405180910390fd5b6127cb81611689565b1561280b576040517f08c379a000000000000000000000000000000000000000000000000000000000815260040161280290613dc6565b60405180910390fd5b6128176000838361298a565b6001600360008473ffffffffffffffffffffffffffffffffffffffff1673ffffffffffffffffffffffffffffffffffffffff1681526020019081526020016000206000828254612867919061407a565b92505081905550816002600083815260200190815260200160002060006101000a81548173ffffffffffffffffffffffffffffffffffffffff021916908373ffffffffffffffffffffffffffffffffffffffff160217905550808273ffffffffffffffffffffffffffffffffffffffff16600073ffffffffffffffffffffffffffffffffffffffff167fddf252ad1be2c89b69c2b068fc378daa952ba7f163c4a11628f55a4df523b3ef60405160405180910390a45050565b60007f01ffc9a7000000000000000000000000000000000000000000000000000000007bffffffffffffffffffffffffffffffffffffffffffffffffffffffff1916827bffffffffffffffffffffffffffffffffffffffffffffffffffffffff1916149050919050565b612995838383612c35565b600073ffffffffffffffffffffffffffffffffffffffff168373ffffffffffffffffffffffffffffffffffffffff1614156129d8576129d381612c3a565b612a17565b8173ffffffffffffffffffffffffffffffffffffffff168373ffffffffffffffffffffffffffffffffffffffff1614612a1657612a158382612c83565b5b5b600073ffffffffffffffffffffffffffffffffffffffff168273ffffffffffffffffffffffffffffffffffffffff161415612a5a57612a5581612df0565b612a99565b8273ffffffffffffffffffffffffffffffffffffffff168273ffffffffffffffffffffffffffffffffffffffff1614612a9857612a978282612f33565b5b5b505050565b6000612abf8473ffffffffffffffffffffffffffffffffffffffff16612fb2565b15612c28578373ffffffffffffffffffffffffffffffffffffffff1663150b7a02612ae86116f5565b8786866040518563ffffffff1660e01b8152600401612b0a9493929190613ca7565b602060405180830381600087803b158015612b2457600080fd5b505af1925050508015612b5557506040513d601f19601f82011682018060405250810190612b529190613266565b60015b612bd8573d8060008114612b85576040519150601f19603f3d011682016040523d82523d6000602084013e612b8a565b606091505b50600081511415612bd0576040517f08c379a0000000000000000000000000000000000000000000000000000000008152600401612bc790613d86565b60405180910390fd5b805181602001fd5b63150b7a0260e01b7bffffffffffffffffffffffffffffffffffffffffffffffffffffffff1916817bffffffffffffffffffffffffffffffffffffffffffffffffffffffff191614915050612c2d565b600190505b949350505050565b505050565b6008805490506009600083815260200190815260200160002081905550600881908060018154018082558091505060019003906000526020600020016000909190919091505550565b60006001612c9084610a09565b612c9a9190614192565b9050600060076000848152602001908152602001600020549050818114612d7f576000600660008673ffffffffffffffffffffffffffffffffffffffff1673ffffffffffffffffffffffffffffffffffffffff168152602001908152602001600020600084815260200190815260200160002054905080600660008773ffffffffffffffffffffffffffffffffffffffff1673ffffffffffffffffffffffffffffffffffffffff168152602001908152602001600020600084815260200190815260200160002081905550816007600083815260200190815260200160002081905550505b6007600084815260200190815260200160002060009055600660008573ffffffffffffffffffffffffffffffffffffffff1673ffffffffffffffffffffffffffffffffffffffff16815260200190815260200160002060008381526020019081526020016000206000905550505050565b60006001600880549050612e049190614192565b9050600060096000848152602001908152602001600020549050600060088381548110612e5a577f4e487b7100000000000000000000000000000000000000000000000000000000600052603260045260246000fd5b906000526020600020015490508060088381548110612ea2577f4e487b7100000000000000000000000000000000000000000000000000000000600052603260045260246000fd5b906000526020600020018190555081600960008381526020019081526020016000208190555060096000858152602001908152602001600020600090556008805480612f17577f4e487b7100000000000000000000000000000000000000000000000000000000600052603160045260246000fd5b6001900381819060005260206000200160009055905550505050565b6000612f3e83610a09565b905081600660008573ffffffffffffffffffffffffffffffffffffffff1673ffffffffffffffffffffffffffffffffffffffff168152602001908152602001600020600083815260200190815260200160002081905550806007600084815260200190815260200160002081905550505050565b600080823b905060008111915050919050565b6000612fd8612fd384614006565b613fe1565b905082815260208101848484011115612ff057600080fd5b612ffb84828561427d565b509392505050565b600081359050613012816150c6565b92915050565b600081359050613027816150dd565b92915050565b60008135905061303c816150f4565b92915050565b600081519050613051816150f4565b92915050565b600082601f83011261306857600080fd5b8135613078848260208601612fc5565b91505092915050565b6000813590506130908161510b565b92915050565b6000602082840312156130a857600080fd5b60006130b684828501613003565b91505092915050565b600080604083850312156130d257600080fd5b60006130e085828601613003565b92505060206130f185828601613003565b9150509250929050565b60008060006060848603121561311057600080fd5b600061311e86828701613003565b935050602061312f86828701613003565b925050604061314086828701613081565b9150509250925092565b6000806000806080858703121561316057600080fd5b600061316e87828801613003565b945050602061317f87828801613003565b935050604061319087828801613081565b925050606085013567ffffffffffffffff8111156131ad57600080fd5b6131b987828801613057565b91505092959194509250565b600080604083850312156131d857600080fd5b60006131e685828601613003565b92505060206131f785828601613018565b9150509250929050565b6000806040838503121561321457600080fd5b600061322285828601613003565b925050602061323385828601613081565b9150509250929050565b60006020828403121561324f57600080fd5b600061325d8482850161302d565b91505092915050565b60006020828403121561327857600080fd5b600061328684828501613042565b91505092915050565b6000602082840312156132a157600080fd5b60006132af84828501613081565b91505092915050565b6132c1816141c6565b82525050565b6132d86132d3826141c6565b614395565b82525050565b6132e7816141d8565b82525050565b6132f681614210565b82525050565b61330d61330882614210565b6143a7565b82525050565b61331c816141e4565b82525050565b600061332d82614037565b613337818561404d565b935061334781856020860161428c565b613350816144b0565b840191505092915050565b600061336682614042565b613370818561405e565b935061338081856020860161428c565b613389816144b0565b840191505092915050565b600061339f82614042565b6133a9818561406f565b93506133b981856020860161428c565b80840191505092915050565b60006133d260098361406f565b91506133dd826144ce565b600982019050919050565b60006133f5606b8361406f565b9150613400826144f7565b606b82019050919050565b6000613418602b8361405e565b915061342382614592565b604082019050919050565b600061343b60328361405e565b9150613446826145e1565b604082019050919050565b600061345e60268361405e565b915061346982614630565b604082019050919050565b6000613481600d8361406f565b915061348c8261467f565b600d82019050919050565b60006134a4601c8361405e565b91506134af826146a8565b602082019050919050565b60006134c760108361406f565b91506134d2826146d1565b601082019050919050565b60006134ea600c8361405e565b91506134f5826146fa565b602082019050919050565b600061350d60678361406f565b915061351882614723565b606782019050919050565b600061353060248361405e565b915061353b826147be565b604082019050919050565b600061355360198361405e565b915061355e8261480d565b602082019050919050565b6000613576602c8361405e565b915061358182614836565b604082019050919050565b6000613599600d8361406f565b91506135a482614885565b600d82019050919050565b60006135bc60098361405e565b91506135c7826148ae565b602082019050919050565b60006135df600d8361406f565b91506135ea826148d7565b600d82019050919050565b600061360260388361405e565b915061360d82614900565b604082019050919050565b6000613625602a8361405e565b91506136308261494f565b604082019050919050565b600061364860298361405e565b91506136538261499e565b604082019050919050565b600061366b60028361406f565b9150613676826149ed565b600282019050919050565b600061368e60088361406f565b915061369982614a16565b600882019050919050565b60006136b160208361405e565b91506136bc82614a3f565b602082019050919050565b60006136d4600d8361406f565b91506136df82614a68565b600d82019050919050565b60006136f760038361406f565b915061370282614a91565b600382019050919050565b600061371a606a8361406f565b915061372582614aba565b606a82019050919050565b600061373d602c8361405e565b915061374882614b55565b604082019050919050565b600061376060298361406f565b915061376b82614ba4565b602982019050919050565b600061378360128361406f565b915061378e82614bf3565b601282019050919050565b60006137a660358361406f565b91506137b182614c1c565b603582019050919050565b60006137c960208361405e565b91506137d482614c6b565b602082019050919050565b60006137ec606a8361406f565b91506137f782614c94565b606a82019050919050565b600061380f60298361405e565b915061381a82614d2f565b604082019050919050565b600061383260048361406f565b915061383d82614d7e565b600482019050919050565b6000613855603c8361406f565b915061386082614da7565b603c82019050919050565b600061387860218361405e565b915061388382614df6565b604082019050919050565b600061389b602f8361406f565b91506138a682614e45565b602f82019050919050565b60006138be601d8361406f565b91506138c982614e94565b601d82019050919050565b60006138e160318361405e565b91506138ec82614ebd565b604082019050919050565b600061390460418361406f565b915061390f82614f0c565b604182019050919050565b6000613927602c8361405e565b915061393282614f81565b604082019050919050565b600061394a600d8361406f565b915061395582614fd0565b600d82019050919050565b600061396d60168361406f565b915061397882614ff9565b601682019050919050565b6000613990601a8361406f565b915061399b82615022565b601a82019050919050565b60006139b3601f8361406f565b91506139be8261504b565b601f82019050919050565b60006139d660068361406f565b91506139e182615074565b600682019050919050565b60006139f9601a8361406f565b9150613a048261509d565b601a82019050919050565b613a1881614266565b82525050565b6000613a2a82866132fc565b602082019150613a3a82856132c7565b601482019150613a4a82846132c7565b601482019150819050949350505050565b6000613a66826133c5565b9150613a72828a613394565b9150613a7d82613776565b9150613a898289613394565b9150613a948261388e565b9150613aa08288613394565b9150613aab82613799565b9150613ab78287613394565b9150613ac282613753565b9150613ace8286613394565b9150613ad98261393d565b9150613ae58285613394565b9150613af0826136c7565b9150613afb826139ec565b9150613b078284613394565b9150613b128261365e565b915081905098975050505050505050565b6000613b2e826135d2565b9150613b39826137df565b9150613b44826133e8565b9150613b4f82613825565b9150613b5a82613474565b9150613b65826134ba565b9150613b718285613394565b9150613b7c82613848565b9150613b888284613394565b9150613b93826139a6565b9150613b9e82613825565b9150613ba98261358c565b9150613bb48261370d565b9150613bbf82613500565b9150613bca82613825565b91508190509392505050565b6000613be182613681565b9150613bed8284613394565b915081905092915050565b6000613c03826138b1565b9150613c0f8284613394565b915081905092915050565b6000613c25826138f7565b9150613c318284613394565b9150613c3c826139c9565b915081905092915050565b6000613c5282613983565b9150613c5e8285613394565b9150613c6982613960565b9150613c758284613394565b9150613c80826136ea565b91508190509392505050565b6000602082019050613ca160008301846132b8565b92915050565b6000608082019050613cbc60008301876132b8565b613cc960208301866132b8565b613cd66040830185613a0f565b8181036060830152613ce88184613322565b905095945050505050565b6000602082019050613d0860008301846132de565b92915050565b6000602082019050613d2360008301846132ed565b92915050565b6000602082019050613d3e6000830184613313565b92915050565b60006020820190508181036000830152613d5e818461335b565b905092915050565b60006020820190508181036000830152613d7f8161340b565b9050919050565b60006020820190508181036000830152613d9f8161342e565b9050919050565b60006020820190508181036000830152613dbf81613451565b9050919050565b60006020820190508181036000830152613ddf81613497565b9050919050565b60006020820190508181036000830152613dff816134dd565b9050919050565b60006020820190508181036000830152613e1f81613523565b9050919050565b60006020820190508181036000830152613e3f81613546565b9050919050565b60006020820190508181036000830152613e5f81613569565b9050919050565b60006020820190508181036000830152613e7f816135af565b9050919050565b60006020820190508181036000830152613e9f816135f5565b9050919050565b60006020820190508181036000830152613ebf81613618565b9050919050565b60006020820190508181036000830152613edf8161363b565b9050919050565b60006020820190508181036000830152613eff816136a4565b9050919050565b60006020820190508181036000830152613f1f81613730565b9050919050565b60006020820190508181036000830152613f3f816137bc565b9050919050565b60006020820190508181036000830152613f5f81613802565b9050919050565b60006020820190508181036000830152613f7f8161386b565b9050919050565b60006020820190508181036000830152613f9f816138d4565b9050919050565b60006020820190508181036000830152613fbf8161391a565b9050919050565b6000602082019050613fdb6000830184613a0f565b92915050565b6000613feb613ffc565b9050613ff7828261431b565b919050565b6000604051905090565b600067ffffffffffffffff82111561402157614020614481565b5b61402a826144b0565b9050602081019050919050565b600081519050919050565b600081519050919050565b600082825260208201905092915050565b600082825260208201905092915050565b600081905092915050565b600061408582614266565b915061409083614266565b9250827fffffffffffffffffffffffffffffffffffffffffffffffffffffffffffffffff038211156140c5576140c46143f4565b5b828201905092915050565b60006140db82614270565b91506140e683614270565b92508260ff038211156140fc576140fb6143f4565b5b828201905092915050565b600061411282614266565b915061411d83614266565b92508261412d5761412c614423565b5b828204905092915050565b600061414382614266565b915061414e83614266565b9250817fffffffffffffffffffffffffffffffffffffffffffffffffffffffffffffffff0483118215151615614187576141866143f4565b5b828202905092915050565b600061419d82614266565b91506141a883614266565b9250828210156141bb576141ba6143f4565b5b828203905092915050565b60006141d182614246565b9050919050565b60008115159050919050565b60007fffffff000000000000000000000000000000000000000000000000000000000082169050919050565b6000819050919050565b60007fffffffff0000000000000000000000000000000000000000000000000000000082169050919050565b600073ffffffffffffffffffffffffffffffffffffffff82169050919050565b6000819050919050565b600060ff82169050919050565b82818337600083830152505050565b60005b838110156142aa57808201518184015260208101905061428f565b838111156142b9576000848401525b50505050565b60006142ca82614266565b915060008214156142de576142dd6143f4565b5b600182039050919050565b6000600282049050600182168061430157607f821691505b6020821081141561431557614314614452565b5b50919050565b614324826144b0565b810181811067ffffffffffffffff8211171561434357614342614481565b5b80604052505050565b600061435782614266565b91507fffffffffffffffffffffffffffffffffffffffffffffffffffffffffffffffff82141561438a576143896143f4565b5b600182019050919050565b60006143a0826143b1565b9050919050565b6000819050919050565b60006143bc826144c1565b9050919050565b60006143ce82614266565b91506143d983614266565b9250826143e9576143e8614423565b5b828206905092915050565b7f4e487b7100000000000000000000000000000000000000000000000000000000600052601160045260246000fd5b7f4e487b7100000000000000000000000000000000000000000000000000000000600052601260045260246000fd5b7f4e487b7100000000000000000000000000000000000000000000000000000000600052602260045260246000fd5b7f4e487b7100000000000000000000000000000000000000000000000000000000600052604160045260246000fd5b6000601f19601f8301169050919050565b60008160601b9050919050565b7f7b226e616d65223a220000000000000000000000000000000000000000000000600082015250565b7f3c656c6c697073652072793d22332e35222072783d22322e35222069643d227360008201527f76675f33222063793d223135342e35222063783d223137332e3522207374726f60208201527f6b652d77696474683d223322207374726f6b653d2223303030222066696c6c3d60408201527f2223303030303030222f3e000000000000000000000000000000000000000000606082015250565b7f455243373231456e756d657261626c653a206f776e657220696e646578206f7560008201527f74206f6620626f756e6473000000000000000000000000000000000000000000602082015250565b7f4552433732313a207472616e7366657220746f206e6f6e20455243373231526560008201527f63656976657220696d706c656d656e7465720000000000000000000000000000602082015250565b7f4f776e61626c653a206e6577206f776e657220697320746865207a65726f206160008201527f6464726573730000000000000000000000000000000000000000000000000000602082015250565b7f3c672069643d2268656164223e00000000000000000000000000000000000000600082015250565b7f4552433732313a20746f6b656e20616c7265616479206d696e74656400000000600082015250565b7f3c656c6c697073652066696c6c3d222300000000000000000000000000000000600082015250565b7f444f4e45204d494e54494e470000000000000000000000000000000000000000600082015250565b7f3c656c6c697073652072793d22332e35222072783d2233222069643d2273766760008201527f5f34222063793d223136392e35222063783d2232303822207374726f6b652d7760208201527f696474683d2233222066696c6c3d222330303030303022207374726f6b653d2260408201527f23303030222f3e00000000000000000000000000000000000000000000000000606082015250565b7f4552433732313a207472616e7366657220746f20746865207a65726f2061646460008201527f7265737300000000000000000000000000000000000000000000000000000000602082015250565b7f4552433732313a20617070726f766520746f2063616c6c657200000000000000600082015250565b7f4552433732313a206f70657261746f7220717565727920666f72206e6f6e657860008201527f697374656e7420746f6b656e0000000000000000000000000000000000000000602082015250565b7f3c672069643d2265796532223e00000000000000000000000000000000000000600082015250565b7f6e6f742065786973740000000000000000000000000000000000000000000000600082015250565b7f3c672069643d2265796531223e00000000000000000000000000000000000000600082015250565b7f4552433732313a20617070726f76652063616c6c6572206973206e6f74206f7760008201527f6e6572206e6f7220617070726f76656420666f7220616c6c0000000000000000602082015250565b7f4552433732313a2062616c616e636520717565727920666f7220746865207a6560008201527f726f206164647265737300000000000000000000000000000000000000000000602082015250565b7f4552433732313a206f776e657220717565727920666f72206e6f6e657869737460008201527f656e7420746f6b656e0000000000000000000000000000000000000000000000602082015250565b7f227d000000000000000000000000000000000000000000000000000000000000600082015250565b7f4c6f6f6769652023000000000000000000000000000000000000000000000000600082015250565b7f4552433732313a206d696e7420746f20746865207a65726f2061646472657373600082015250565b7f222c2022696d616765223a202200000000000000000000000000000000000000600082015250565b7f2121210000000000000000000000000000000000000000000000000000000000600082015250565b7f3c656c6c69707365207374726f6b652d77696474683d2233222072793d22323960008201527f2e35222072783d2232392e35222069643d227376675f32222063793d2231363860208201527f2e35222063783d223230392e3522207374726f6b653d2223303030222066696c60408201527f6c3d2223666666222f3e00000000000000000000000000000000000000000000606082015250565b7f4552433732313a20617070726f76656420717565727920666f72206e6f6e657860008201527f697374656e7420746f6b656e0000000000000000000000000000000000000000602082015250565b7f227d2c7b2274726169745f74797065223a20226368756262696e657373222c2060008201527f2276616c7565223a200000000000000000000000000000000000000000000000602082015250565b7f222c20226465736372697074696f6e223a220000000000000000000000000000600082015250565b7f222c202261747472696275746573223a205b7b2274726169745f74797065223a60008201527f2022636f6c6f72222c202276616c7565223a2022230000000000000000000000602082015250565b7f4f776e61626c653a2063616c6c6572206973206e6f7420746865206f776e6572600082015250565b7f3c656c6c69707365207374726f6b652d77696474683d2233222072793d22323960008201527f2e35222072783d2232392e35222069643d227376675f31222063793d2231353460208201527f2e35222063783d223138312e3522207374726f6b653d2223303030222066696c60408201527f6c3d2223666666222f3e00000000000000000000000000000000000000000000606082015250565b7f4552433732313a207472616e73666572206f6620746f6b656e2074686174206960008201527f73206e6f74206f776e0000000000000000000000000000000000000000000000602082015250565b7f3c2f673e00000000000000000000000000000000000000000000000000000000600082015250565b7f22207374726f6b652d77696474683d2233222063783d223230342e352220637960008201527f3d223231312e3830303635222069643d227376675f35222072783d2200000000602082015250565b7f4552433732313a20617070726f76616c20746f2063757272656e74206f776e6560008201527f7200000000000000000000000000000000000000000000000000000000000000602082015250565b7f222c202265787465726e616c5f75726c223a2268747470733a2f2f6275726e7960008201527f626f79732e636f6d2f746f6b656e2f0000000000000000000000000000000000602082015250565b7f646174613a6170706c69636174696f6e2f6a736f6e3b6261736536342c000000600082015250565b7f4552433732313a207472616e736665722063616c6c6572206973206e6f74206f60008201527f776e6572206e6f7220617070726f766564000000000000000000000000000000602082015250565b7f3c7376672077696474683d2234303022206865696768743d223430302220786d60008201527f6c6e733d22687474703a2f2f7777772e77332e6f72672f323030302f7376672260208201527f3e00000000000000000000000000000000000000000000000000000000000000604082015250565b7f455243373231456e756d657261626c653a20676c6f62616c20696e646578206f60008201527f7574206f6620626f756e64730000000000000000000000000000000000000000602082015250565b7f7d5d2c20226f776e6572223a2200000000000000000000000000000000000000600082015250565b7f20776974682061206368756262696e657373206f662000000000000000000000600082015250565b7f54686973204c6f6f6769652069732074686520636f6c6f722023000000000000600082015250565b7f222072793d2235312e383030363522207374726f6b653d2223303030222f3e00600082015250565b7f3c2f7376673e0000000000000000000000000000000000000000000000000000600082015250565b7f646174613a696d6167652f7376672b786d6c3b6261736536342c000000000000600082015250565b6150cf816141c6565b81146150da57600080fd5b50565b6150e6816141d8565b81146150f157600080fd5b50565b6150fd8161421a565b811461510857600080fd5b50565b61511481614266565b811461511f57600080fd5b5056fe4142434445464748494a4b4c4d4e4f505152535455565758595a6162636465666768696a6b6c6d6e6f707172737475767778797a303132333435363738392b2fa264697066735822122018d25793bea9b13daa37840339324e1d537bfe58a9de5c4734c702a9f84dbedb64736f6c63430008040033",
  "linkReferences": {},
  "deployedLinkReferences": {}
}